{
  "contractName": "ClinicalTrails",
  "abi": [
    {
      "inputs": [
        {
          "internalType": "address",
          "name": "fda",
          "type": "address"
        }
      ],
      "stateMutability": "nonpayable",
      "type": "constructor"
    },
    {
      "inputs": [],
      "name": "Application_fees",
      "outputs": [
        {
          "internalType": "uint256",
          "name": "",
          "type": "uint256"
        }
      ],
      "stateMutability": "view",
      "type": "function",
      "constant": true
    },
    {
      "inputs": [
        {
          "internalType": "uint256",
          "name": "",
          "type": "uint256"
        }
      ],
      "name": "Clinical_Trail_Products",
      "outputs": [
        {
          "internalType": "address",
          "name": "producer",
          "type": "address"
        },
        {
          "internalType": "uint256",
          "name": "ctitem_no",
          "type": "uint256"
        },
        {
          "internalType": "string",
          "name": "ctitem_hash",
          "type": "string"
        },
        {
          "internalType": "bool",
          "name": "Application_stage_completed",
          "type": "bool"
        },
        {
          "internalType": "bool",
          "name": "Appilcation_Approved",
          "type": "bool"
        },
        {
          "internalType": "bool",
          "name": "enrollment_completed",
          "type": "bool"
        }
      ],
      "stateMutability": "view",
      "type": "function",
      "constant": true
    },
    {
      "inputs": [
        {
          "internalType": "uint256",
          "name": "",
          "type": "uint256"
        }
      ],
      "name": "Clinical_Trails",
      "outputs": [
        {
          "internalType": "uint256",
          "name": "ctitem_number",
          "type": "uint256"
        },
        {
          "internalType": "uint256",
          "name": "starttime",
          "type": "uint256"
        },
        {
          "internalType": "uint256",
          "name": "endtime",
          "type": "uint256"
        },
        {
          "internalType": "uint256",
          "name": "noofpaits",
          "type": "uint256"
        },
        {
          "internalType": "uint256",
          "name": "max_age",
          "type": "uint256"
        },
        {
          "internalType": "uint256",
          "name": "no_of_paits",
          "type": "uint256"
        },
        {
          "internalType": "string",
          "name": "ct_hash",
          "type": "string"
        },
        {
          "internalType": "string",
          "name": "sop_hash",
          "type": "string"
        },
        {
          "internalType": "string",
          "name": "pi_cv_hash",
          "type": "string"
        },
        {
          "internalType": "bool",
          "name": "CT_approved",
          "type": "bool"
        },
        {
          "internalType": "uint256",
          "name": "no_of_pait",
          "type": "uint256"
        }
      ],
      "stateMutability": "view",
      "type": "function",
      "constant": true
    },
    {
      "inputs": [],
      "name": "FDA_authority",
      "outputs": [
        {
          "internalType": "address",
          "name": "",
          "type": "address"
        }
      ],
      "stateMutability": "view",
      "type": "function",
      "constant": true
    },
    {
      "inputs": [
        {
          "internalType": "uint256",
          "name": "",
          "type": "uint256"
        }
      ],
      "name": "ct_to_physican",
      "outputs": [
        {
          "internalType": "address",
          "name": "",
          "type": "address"
        }
      ],
      "stateMutability": "view",
      "type": "function",
      "constant": true
    },
    {
      "inputs": [],
      "name": "physician",
      "outputs": [
        {
          "internalType": "address",
          "name": "",
          "type": "address"
        }
      ],
      "stateMutability": "view",
      "type": "function",
      "constant": true
    },
    {
      "inputs": [
        {
          "internalType": "string",
          "name": "hash",
          "type": "string"
        },
        {
          "internalType": "bool",
          "name": "application_stage",
          "type": "bool"
        }
      ],
      "name": "submit_Application",
      "outputs": [],
      "stateMutability": "payable",
      "type": "function",
      "payable": true
    },
    {
      "inputs": [
        {
          "internalType": "uint256",
          "name": "application_id",
          "type": "uint256"
        },
        {
          "internalType": "bool",
          "name": "details_correct",
          "type": "bool"
        }
      ],
      "name": "approve_application",
      "outputs": [],
      "stateMutability": "nonpayable",
      "type": "function"
    },
    {
      "inputs": [
        {
          "internalType": "uint256",
          "name": "CT_number",
          "type": "uint256"
        },
        {
          "internalType": "uint256",
          "name": "start_time",
          "type": "uint256"
        },
        {
          "internalType": "uint256",
          "name": "end_time",
          "type": "uint256"
        },
        {
          "internalType": "uint256",
          "name": "noofpaitents",
          "type": "uint256"
        },
        {
          "internalType": "uint256",
          "name": "max_age",
          "type": "uint256"
        },
        {
          "internalType": "string",
          "name": "CTProtocolHash",
          "type": "string"
        },
        {
          "internalType": "string",
          "name": "SOPHash",
          "type": "string"
        },
        {
          "internalType": "string",
          "name": "PI_CVHash",
          "type": "string"
        }
      ],
      "name": "clinical_trail_Request",
      "outputs": [],
      "stateMutability": "nonpayable",
      "type": "function"
    },
    {
      "inputs": [
        {
          "internalType": "uint256",
          "name": "CT_number",
          "type": "uint256"
        }
      ],
      "name": "approve_CT_request",
      "outputs": [],
      "stateMutability": "nonpayable",
      "type": "function"
    },
    {
      "inputs": [
        {
          "internalType": "uint256",
          "name": "cid",
          "type": "uint256"
        },
        {
          "internalType": "address",
          "name": "phy",
          "type": "address"
        }
      ],
      "name": "assign_physician",
      "outputs": [],
      "stateMutability": "nonpayable",
      "type": "function"
    },
    {
      "inputs": [
        {
          "internalType": "address",
          "name": "padd",
          "type": "address"
        },
        {
          "internalType": "uint256",
          "name": "pait_id",
          "type": "uint256"
        },
        {
          "internalType": "uint256",
          "name": "ct_number",
          "type": "uint256"
        },
        {
          "internalType": "uint256",
          "name": "age",
          "type": "uint256"
        },
        {
          "internalType": "bool",
          "name": "consent_completed",
          "type": "bool"
        },
        {
          "internalType": "bool",
          "name": "medical_remark",
          "type": "bool"
        },
        {
          "internalType": "string",
          "name": "medical_report_hash",
          "type": "string"
        }
      ],
      "name": "enroll_paitient",
      "outputs": [],
      "stateMutability": "nonpayable",
      "type": "function"
    },
    {
      "inputs": [
        {
          "internalType": "uint256",
          "name": "ct_number",
          "type": "uint256"
        }
      ],
      "name": "enroll_completed",
      "outputs": [],
      "stateMutability": "nonpayable",
      "type": "function"
    },
    {
      "inputs": [
        {
          "internalType": "uint256",
          "name": "pait_id",
          "type": "uint256"
        },
        {
          "internalType": "bool",
          "name": "res",
          "type": "bool"
        }
      ],
      "name": "enter_result",
      "outputs": [],
      "stateMutability": "nonpayable",
      "type": "function"
    },
    {
      "inputs": [
        {
          "internalType": "uint256",
          "name": "ct_number",
          "type": "uint256"
        }
      ],
      "name": "declare_trail_result",
      "outputs": [
        {
          "internalType": "bool",
          "name": "",
          "type": "bool"
        }
      ],
      "stateMutability": "view",
      "type": "function",
      "constant": true
    }
  ],
  "bytecode": "0x6080604052600060075560c86009553480156200001b57600080fd5b5060405162002270380380620022708339818101604052810190620000419190620000f3565b80600660006101000a81548173ffffffffffffffffffffffffffffffffffffffff021916908373ffffffffffffffffffffffffffffffffffffffff1602179055505062000125565b600080fd5b600073ffffffffffffffffffffffffffffffffffffffff82169050919050565b6000620000bb826200008e565b9050919050565b620000cd81620000ae565b8114620000d957600080fd5b50565b600081519050620000ed81620000c2565b92915050565b6000602082840312156200010c576200010b62000089565b5b60006200011c84828501620000dc565b91505092915050565b61213b80620001356000396000f3fe6080604052600436106100e85760003560e01c80637074ec7e1161008a578063b896ceed11610059578063b896ceed14610306578063bcc6a1e01461032f578063d6e2352714610358578063f6a033a514610383576100e8565b80637074ec7e1461024c5780637bbb8cf814610289578063841190b2146102b2578063af27d0d8146102dd576100e8565b8063428189f9116100c6578063428189f91461019757806346c0137b146101c0578063562a5844146101e9578063705270d114610230576100e8565b80632153568a146100ed578063333f8d021461012a57806339d498121461016c575b600080fd5b3480156100f957600080fd5b50610114600480360381019061010f91906113d0565b6103ac565b6040516101219190611418565b60405180910390f35b34801561013657600080fd5b50610151600480360381019061014c91906113d0565b61046d565b6040516101639695949392919061151c565b60405180910390f35b34801561017857600080fd5b50610181610578565b60405161018e9190611584565b60405180910390f35b3480156101a357600080fd5b506101be60048036038101906101b991906115cb565b61059e565b005b3480156101cc57600080fd5b506101e760048036038101906101e29190611637565b61067c565b005b3480156101f557600080fd5b50610210600480360381019061020b91906113d0565b6106f2565b6040516102279b9a99989796959493929190611677565b60405180910390f35b61024a6004803603810190610245919061186c565b6108f1565b005b34801561025857600080fd5b50610273600480360381019061026e91906113d0565b610b23565b6040516102809190611584565b60405180910390f35b34801561029557600080fd5b506102b060048036038101906102ab9190611637565b610b56565b005b3480156102be57600080fd5b506102c7610c54565b6040516102d49190611584565b60405180910390f35b3480156102e957600080fd5b5061030460048036038101906102ff91906113d0565b610c7a565b005b34801561031257600080fd5b5061032d600480360381019061032891906118c8565b610d06565b005b34801561033b57600080fd5b5061035660048036038101906103519190611986565b610f49565b005b34801561036457600080fd5b5061036d611157565b60405161037a9190611a90565b60405180910390f35b34801561038f57600080fd5b506103aa60048036038101906103a591906113d0565b61115d565b005b60008060005b600a805490508110156104215760011515600a82815481106103d7576103d6611aab565b5b90600052602060002090602091828204019190069054906101000a900460ff1615150361040e5760018261040b9190611b09565b91505b808061041990611b5f565b9150506103b2565b50600a600460008581526020019081526020016000206003015460076104479190611ba7565b6104519190611c30565b811115610462576001915050610468565b60009150505b919050565b60086020528060005260406000206000915090508060000160009054906101000a900473ffffffffffffffffffffffffffffffffffffffff16908060010154908060020180546104bc90611c90565b80601f01602080910402602001604051908101604052809291908181526020018280546104e890611c90565b80156105355780601f1061050a57610100808354040283529160200191610535565b820191906000526020600020905b81548152906001019060200180831161051857829003601f168201915b5050505050908060030160009054906101000a900460ff16908060030160019054906101000a900460ff16908060030160029054906101000a900460ff16905086565b600360009054906101000a900473ffffffffffffffffffffffffffffffffffffffff1681565b6105a73361121f565b6105e6576040517f08c379a00000000000000000000000000000000000000000000000000000000081526004016105dd90611d0d565b60405180910390fd5b8060008084815260200190815260200160002060006101000a81548173ffffffffffffffffffffffffffffffffffffffff021916908373ffffffffffffffffffffffffffffffffffffffff16021790555080600360006101000a81548173ffffffffffffffffffffffffffffffffffffffff021916908373ffffffffffffffffffffffffffffffffffffffff1602179055505050565b806002600084815260200190815260200160002060030160006101000a81548160ff021916908315150217905550600a8190806001815401808255809150506001900390600052602060002090602091828204019190069091909190916101000a81548160ff0219169083151502179055505050565b600460205280600052604060002060009150905080600001549080600101549080600201549080600301549080600401549080600501549080600601805461073990611c90565b80601f016020809104026020016040519081016040528092919081815260200182805461076590611c90565b80156107b25780601f10610787576101008083540402835291602001916107b2565b820191906000526020600020905b81548152906001019060200180831161079557829003601f168201915b5050505050908060070180546107c790611c90565b80601f01602080910402602001604051908101604052809291908181526020018280546107f390611c90565b80156108405780601f1061081557610100808354040283529160200191610840565b820191906000526020600020905b81548152906001019060200180831161082357829003601f168201915b50505050509080600801805461085590611c90565b80601f016020809104026020016040519081016040528092919081815260200182805461088190611c90565b80156108ce5780601f106108a3576101008083540402835291602001916108ce565b820191906000526020600020905b8154815290600101906020018083116108b157829003601f168201915b5050505050908060090160009054906101000a900460ff169080600a015490508b565b6009543414610935576040517f08c379a000000000000000000000000000000000000000000000000000000000815260040161092c90611d9f565b60405180910390fd5b6005339080600181540180825580915050600190039060005260206000200160009091909190916101000a81548173ffffffffffffffffffffffffffffffffffffffff021916908373ffffffffffffffffffffffffffffffffffffffff160217905550600660009054906101000a900473ffffffffffffffffffffffffffffffffffffffff1673ffffffffffffffffffffffffffffffffffffffff166108fc349081150290604051600060405180830381858888f19350505050158015610a00573d6000803e3d6000fd5b50600160076000828254610a149190611b09565b925050819055503360086000600754815260200190815260200160002060000160006101000a81548173ffffffffffffffffffffffffffffffffffffffff021916908373ffffffffffffffffffffffffffffffffffffffff16021790555060075460086000600754815260200190815260200160002060010181905550816008600060075481526020019081526020016000206002019080519060200190610abd9291906112e3565b508060086000600754815260200190815260200160002060030160006101000a81548160ff021916908315150217905550600060086000600754815260200190815260200160002060030160016101000a81548160ff0219169083151502179055505050565b60006020528060005260406000206000915054906101000a900473ffffffffffffffffffffffffffffffffffffffff1681565b600660009054906101000a900473ffffffffffffffffffffffffffffffffffffffff1673ffffffffffffffffffffffffffffffffffffffff163373ffffffffffffffffffffffffffffffffffffffff1614610be6576040517f08c379a0000000000000000000000000000000000000000000000000000000008152600401610bdd90611e0b565b60405180910390fd5b8015610c205760016008600084815260200190815260200160002060030160016101000a81548160ff021916908315150217905550610c50565b60006008600084815260200190815260200160002060030160016101000a81548160ff0219169083151502179055505b5050565b600660009054906101000a900473ffffffffffffffffffffffffffffffffffffffff1681565b600360009054906101000a900473ffffffffffffffffffffffffffffffffffffffff1673ffffffffffffffffffffffffffffffffffffffff163373ffffffffffffffffffffffffffffffffffffffff1614610cd457600080fd5b60016008600083815260200190815260200160002060030160026101000a81548160ff02191690831515021790555050565b600360009054906101000a900473ffffffffffffffffffffffffffffffffffffffff1673ffffffffffffffffffffffffffffffffffffffff163373ffffffffffffffffffffffffffffffffffffffff1614610d96576040517f08c379a0000000000000000000000000000000000000000000000000000000008152600401610d8d90611e9d565b60405180910390fd5b82610dd6576040517f08c379a0000000000000000000000000000000000000000000000000000000008152600401610dcd90611f2f565b60405180910390fd5b60046000868152602001908152602001600020600401548410610df857600080fd5b6000151582151514610e3f576040517f08c379a0000000000000000000000000000000000000000000000000000000008152600401610e3690611fc1565b60405180910390fd5b600460008681526020019081526020016000206003015460046000878152602001908152602001600020600a015410610e7757600080fd5b866002600088815260200190815260200160002060000160006101000a81548173ffffffffffffffffffffffffffffffffffffffff021916908373ffffffffffffffffffffffffffffffffffffffff160217905550846002600088815260200190815260200160002060010181905550600160046000878152602001908152602001600020600a016000828254610f0e9190611b09565b9250508190555080600260008881526020019081526020016000206002019080519060200190610f3f9291906112e3565b5050505050505050565b610f523361121f565b610f91576040517f08c379a0000000000000000000000000000000000000000000000000000000008152600401610f8890612079565b60405180910390fd5b60011515600860008a815260200190815260200160002060030160019054906101000a900460ff16151514610ffb576040517f08c379a0000000000000000000000000000000000000000000000000000000008152600401610ff2906120e5565b60405180910390fd5b87600460008a81526020019081526020016000206000018190555086600460008a81526020019081526020016000206001018190555085600460008a81526020019081526020016000206002018190555084600460008a81526020019081526020016000206003018190555083600460008a81526020019081526020016000206004018190555084600460008a81526020019081526020016000206005018190555082600460008a815260200190815260200160002060060190805190602001906110c79291906112e3565b5081600460008a815260200190815260200160002060070190805190602001906110f29291906112e3565b5080600460008a8152602001908152602001600020600801908051906020019061111d9291906112e3565b506000600460008a815260200190815260200160002060090160006101000a81548160ff0219169083151502179055505050505050505050565b60095481565b600660009054906101000a900473ffffffffffffffffffffffffffffffffffffffff1673ffffffffffffffffffffffffffffffffffffffff163373ffffffffffffffffffffffffffffffffffffffff16146111ed576040517f08c379a00000000000000000000000000000000000000000000000000000000081526004016111e490611e0b565b60405180910390fd5b60016004600083815260200190815260200160002060090160006101000a81548160ff02191690831515021790555050565b6000806000905060005b6005805490508110156112c9578373ffffffffffffffffffffffffffffffffffffffff166005828154811061126157611260611aab565b5b9060005260206000200160009054906101000a900473ffffffffffffffffffffffffffffffffffffffff1673ffffffffffffffffffffffffffffffffffffffff16036112b657600191506001925050506112de565b80806112c190611b5f565b915050611229565b50600081036112dc5760009150506112de565b505b919050565b8280546112ef90611c90565b90600052602060002090601f0160209004810192826113115760008555611358565b82601f1061132a57805160ff1916838001178555611358565b82800160010185558215611358579182015b8281111561135757825182559160200191906001019061133c565b5b5090506113659190611369565b5090565b5b8082111561138257600081600090555060010161136a565b5090565b6000604051905090565b600080fd5b600080fd5b6000819050919050565b6113ad8161139a565b81146113b857600080fd5b50565b6000813590506113ca816113a4565b92915050565b6000602082840312156113e6576113e5611390565b5b60006113f4848285016113bb565b91505092915050565b60008115159050919050565b611412816113fd565b82525050565b600060208201905061142d6000830184611409565b92915050565b600073ffffffffffffffffffffffffffffffffffffffff82169050919050565b600061145e82611433565b9050919050565b61146e81611453565b82525050565b61147d8161139a565b82525050565b600081519050919050565b600082825260208201905092915050565b60005b838110156114bd5780820151818401526020810190506114a2565b838111156114cc576000848401525b50505050565b6000601f19601f8301169050919050565b60006114ee82611483565b6114f8818561148e565b935061150881856020860161149f565b611511816114d2565b840191505092915050565b600060c0820190506115316000830189611465565b61153e6020830188611474565b818103604083015261155081876114e3565b905061155f6060830186611409565b61156c6080830185611409565b61157960a0830184611409565b979650505050505050565b60006020820190506115996000830184611465565b92915050565b6115a881611453565b81146115b357600080fd5b50565b6000813590506115c58161159f565b92915050565b600080604083850312156115e2576115e1611390565b5b60006115f0858286016113bb565b9250506020611601858286016115b6565b9150509250929050565b611614816113fd565b811461161f57600080fd5b50565b6000813590506116318161160b565b92915050565b6000806040838503121561164e5761164d611390565b5b600061165c858286016113bb565b925050602061166d85828601611622565b9150509250929050565b60006101608201905061168d600083018e611474565b61169a602083018d611474565b6116a7604083018c611474565b6116b4606083018b611474565b6116c1608083018a611474565b6116ce60a0830189611474565b81810360c08301526116e081886114e3565b905081810360e08301526116f481876114e3565b905081810361010083015261170981866114e3565b9050611719610120830185611409565b611727610140830184611474565b9c9b505050505050505050505050565b600080fd5b600080fd5b7f4e487b7100000000000000000000000000000000000000000000000000000000600052604160045260246000fd5b611779826114d2565b810181811067ffffffffffffffff8211171561179857611797611741565b5b80604052505050565b60006117ab611386565b90506117b78282611770565b919050565b600067ffffffffffffffff8211156117d7576117d6611741565b5b6117e0826114d2565b9050602081019050919050565b82818337600083830152505050565b600061180f61180a846117bc565b6117a1565b90508281526020810184848401111561182b5761182a61173c565b5b6118368482856117ed565b509392505050565b600082601f83011261185357611852611737565b5b81356118638482602086016117fc565b91505092915050565b6000806040838503121561188357611882611390565b5b600083013567ffffffffffffffff8111156118a1576118a0611395565b5b6118ad8582860161183e565b92505060206118be85828601611622565b9150509250929050565b600080600080600080600060e0888a0312156118e7576118e6611390565b5b60006118f58a828b016115b6565b97505060206119068a828b016113bb565b96505060406119178a828b016113bb565b95505060606119288a828b016113bb565b94505060806119398a828b01611622565b93505060a061194a8a828b01611622565b92505060c088013567ffffffffffffffff81111561196b5761196a611395565b5b6119778a828b0161183e565b91505092959891949750929550565b600080600080600080600080610100898b0312156119a7576119a6611390565b5b60006119b58b828c016113bb565b98505060206119c68b828c016113bb565b97505060406119d78b828c016113bb565b96505060606119e88b828c016113bb565b95505060806119f98b828c016113bb565b94505060a089013567ffffffffffffffff811115611a1a57611a19611395565b5b611a268b828c0161183e565b93505060c089013567ffffffffffffffff811115611a4757611a46611395565b5b611a538b828c0161183e565b92505060e089013567ffffffffffffffff811115611a7457611a73611395565b5b611a808b828c0161183e565b9150509295985092959890939650565b6000602082019050611aa56000830184611474565b92915050565b7f4e487b7100000000000000000000000000000000000000000000000000000000600052603260045260246000fd5b7f4e487b7100000000000000000000000000000000000000000000000000000000600052601160045260246000fd5b6000611b148261139a565b9150611b1f8361139a565b9250827fffffffffffffffffffffffffffffffffffffffffffffffffffffffffffffffff03821115611b5457611b53611ada565b5b828201905092915050565b6000611b6a8261139a565b91507fffffffffffffffffffffffffffffffffffffffffffffffffffffffffffffffff8203611b9c57611b9b611ada565b5b600182019050919050565b6000611bb28261139a565b9150611bbd8361139a565b9250817fffffffffffffffffffffffffffffffffffffffffffffffffffffffffffffffff0483118215151615611bf657611bf5611ada565b5b828202905092915050565b7f4e487b7100000000000000000000000000000000000000000000000000000000600052601260045260246000fd5b6000611c3b8261139a565b9150611c468361139a565b925082611c5657611c55611c01565b5b828204905092915050565b7f4e487b7100000000000000000000000000000000000000000000000000000000600052602260045260246000fd5b60006002820490506001821680611ca857607f821691505b602082108103611cbb57611cba611c61565b5b50919050565b7f4e6f7420616c6c6f77656420746f2061737369676e2070687973696369616e00600082015250565b6000611cf7601f8361148e565b9150611d0282611cc1565b602082019050919050565b60006020820190508181036000830152611d2681611cea565b9050919050565b7f54686520616d6f756e74206973206e6f7420656666696369656e7420746f207360008201527f75626d697420746865206170706c69636174696f6e0000000000000000000000602082015250565b6000611d8960358361148e565b9150611d9482611d2d565b604082019050919050565b60006020820190508181036000830152611db881611d7c565b9050919050565b7f4f6e6c792046444120617574686f726974792000000000000000000000000000600082015250565b6000611df560138361148e565b9150611e0082611dbf565b602082019050919050565b60006020820190508181036000830152611e2481611de8565b9050919050565b7f6f6e6c792070687973696369616e2063616e20656e726f6c6c2070617469656e60008201527f7400000000000000000000000000000000000000000000000000000000000000602082015250565b6000611e8760218361148e565b9150611e9282611e2b565b604082019050919050565b60006020820190508181036000830152611eb681611e7a565b9050919050565b7f50617469656e74206e6565647320746f20636f6d706c65746520636f6e73656e60008201527f7420746f20656e726f6c6c000000000000000000000000000000000000000000602082015250565b6000611f19602b8361148e565b9150611f2482611ebd565b604082019050919050565b60006020820190508181036000830152611f4881611f0c565b9050919050565b7f7468652070617469656e74206d757374206e6f74206861766520616e79206d6560008201527f646963616c2072656d61726b0000000000000000000000000000000000000000602082015250565b6000611fab602c8361148e565b9150611fb682611f4f565b604082019050919050565b60006020820190508181036000830152611fda81611f9e565b9050919050565b7f596f7520617265206e6f7420612076616c69642073706f6e736f7220796f752060008201527f617265206e6f7420616c6c6f77656420726f206d616b6520436c696e6963616c60208201527f20547261696c2052657175657374000000000000000000000000000000000000604082015250565b6000612063604e8361148e565b915061206e82611fe1565b606082019050919050565b6000602082019050818103600083015261209281612056565b9050919050565b7f4170706c69636174696f6e204e6f7420417070726f7665642079657400000000600082015250565b60006120cf601c8361148e565b91506120da82612099565b602082019050919050565b600060208201905081810360008301526120fe816120c2565b905091905056fea2646970667358221220f32bbd65f8d7487ea72619ab447cfa8fa7636cd594c677eca20127f09e58b1a864736f6c634300080e0033",
  "immutableReferences": {},
  "source": "pragma solidity 0.8.14;\r\ncontract ClinicalTrails{\r\n    constructor(address fda){\r\n        FDA_authority=fda;\r\n    }\r\n    struct CTitem{\r\n        address producer;\r\n        uint ctitem_no;\r\n        string ctitem_hash;\r\n        bool Application_stage_completed;\r\n        bool Appilcation_Approved; \r\n        bool enrollment_completed;  \r\n    }\r\n    struct ClinicalTrailRequest{\r\n        uint ctitem_number;\r\n        uint starttime;\r\n        uint endtime;\r\n        uint noofpaits;\r\n        uint max_age;\r\n        uint no_of_paits;\r\n        string ct_hash;\r\n        string sop_hash;\r\n        string pi_cv_hash;\r\n        bool CT_approved;\r\n        uint no_of_pait;\r\n    }\r\nmapping(uint=>address) public ct_to_physican;\r\n    struct patient{\r\n        address patient_Address;\r\n        uint ct_number;\r\n        string  medical_report_hash;\r\n        bool result;\r\n    }\r\n    address [] patientaddress;\r\n    mapping (uint => patient)patients;\r\n    address public physician;\r\n    mapping (uint => ClinicalTrailRequest) public Clinical_Trails;\r\n    address [] sponsors;\r\n    address public FDA_authority;\r\n    uint clinical_item_number=0;\r\n    mapping (uint => CTitem) public Clinical_Trail_Products;\r\n\r\n    uint public Application_fees=200;\r\n    bool [] pait_result;\r\n    function submit_Application(string memory hash,bool application_stage) public payable \r\n    {\r\n        require(msg.value==Application_fees,\"The amount is not efficient to submit the application\");\r\n        sponsors.push(msg.sender);\r\n        payable(FDA_authority).transfer(msg.value);\r\n        clinical_item_number+=1;\r\n        Clinical_Trail_Products[clinical_item_number].producer=msg.sender;\r\n        Clinical_Trail_Products[clinical_item_number].ctitem_no=clinical_item_number;\r\n        Clinical_Trail_Products[clinical_item_number].ctitem_hash=hash;\r\n        Clinical_Trail_Products[clinical_item_number].Application_stage_completed=application_stage;\r\n        Clinical_Trail_Products[clinical_item_number].Appilcation_Approved=false;\r\n    }\r\n    function approve_application(uint application_id,bool details_correct) public {\r\n        require(msg.sender==FDA_authority,\"Only FDA authority \");\r\n        if(details_correct){\r\n            Clinical_Trail_Products[application_id].Appilcation_Approved=true;\r\n        }\r\n        else{\r\n            Clinical_Trail_Products[application_id].Appilcation_Approved=false;\r\n        }\r\n\r\n    }\r\n    function valid_sponsor(address j) private view returns(bool)\r\n    {\r\n        uint flag=0;\r\n        for(uint i=0;i<sponsors.length;i++)\r\n        {\r\n            if(sponsors[i]==j)\r\n            {\r\n                flag=1;\r\n                return true;\r\n            }\r\n        }\r\n        if (flag==0)\r\n        {\r\n            return false;\r\n        }\r\n    }\r\n    function clinical_trail_Request(uint CT_number,uint start_time,uint end_time,uint noofpaitents,uint max_age,string memory CTProtocolHash, string memory SOPHash, string memory PI_CVHash) public {\r\n        require(valid_sponsor(msg.sender),\"You are not a valid sponsor you are not allowed ro make Clinical Trail Request\");\r\n    require(Clinical_Trail_Products[CT_number].Appilcation_Approved==true,\"Application Not Approved yet\");\r\n    Clinical_Trails[CT_number].ctitem_number=CT_number;\r\n    Clinical_Trails[CT_number].starttime=start_time;\r\n    Clinical_Trails[CT_number].endtime=end_time;\r\n    Clinical_Trails[CT_number].noofpaits=noofpaitents;\r\n    Clinical_Trails[CT_number].max_age=max_age;\r\n    Clinical_Trails[CT_number].no_of_paits=noofpaitents;\r\n     Clinical_Trails[CT_number].ct_hash=CTProtocolHash;\r\n    Clinical_Trails[CT_number].sop_hash=SOPHash;\r\n    Clinical_Trails[CT_number].pi_cv_hash=PI_CVHash;\r\n    Clinical_Trails[CT_number].CT_approved=false;\r\n    }\r\n    function approve_CT_request(uint CT_number) public {\r\n       require(msg.sender==FDA_authority,\"Only FDA authority \");\r\n       Clinical_Trails[CT_number].CT_approved=true;\r\n    }\r\n    function assign_physician(uint cid,address phy) public {\r\n        require(valid_sponsor(msg.sender),\"Not allowed to assign physician\");\r\n        ct_to_physican[cid]=phy;\r\n        physician=phy;\r\n    }\r\n    function enroll_paitient(address padd,uint pait_id,uint ct_number,uint age,bool consent_completed,bool medical_remark,string memory medical_report_hash) public \r\n    {\r\n        require(msg.sender==physician,\"only physician can enroll patient\");\r\n        require(consent_completed,\"Patient needs to complete consent to enroll\");\r\n        require(age<Clinical_Trails[ct_number].max_age);\r\n        require(medical_remark==false,\"the patient must not have any medical remark\");\r\n        require(Clinical_Trails[ct_number].no_of_pait<Clinical_Trails[ct_number].noofpaits);\r\n        patients[pait_id].patient_Address=padd;\r\n        patients[pait_id].ct_number=ct_number;\r\n        Clinical_Trails[ct_number].no_of_pait+=1;\r\n        patients[pait_id].medical_report_hash=medical_report_hash;\r\n    }\r\n    function enroll_completed(uint ct_number) public {\r\n        require(msg.sender==physician);\r\n        Clinical_Trail_Products[ct_number].enrollment_completed=true;\r\n    }\r\n    function enter_result(uint pait_id,bool res) public {\r\n        patients[pait_id].result=res;\r\n        pait_result.push(res);\r\n    }\r\n    function declare_trail_result(uint ct_number) public view returns(bool) {\r\n        uint p;\r\n        for(uint i=0;i<pait_result.length;i++)\r\n        {\r\n            if(pait_result[i]==true)\r\n            {\r\n                p=p+1;\r\n            }\r\n        }\r\n        if (p>((7*Clinical_Trails[ct_number].noofpaits)/10)){\r\n            return true;\r\n        }  \r\n        else {\r\n            return false;\r\n        } }\r\n}",
  "sourcePath": "D:\\programing\\blkchain\\Clinical_Truffle_App\\contracts\\ClinicalTrail.sol",
  "compiler": {
    "name": "solc",
    "version": "0.8.14+commit.80d49f37.Emscripten.clang"
  },
  "schemaVersion": "3.4.16",
  "updatedAt": "2024-11-17T14:22:25.987Z",
  "networkType": "ethereum",
  "devdoc": {
    "kind": "dev",
    "methods": {},
    "version": 1
  },
  "userdoc": {
    "kind": "user",
    "methods": {},
    "version": 1
  }
}