{
  "contractName": "ClinicalTrails",
  "abi": [
    {
      "inputs": [
        {
          "internalType": "address",
          "name": "fda",
          "type": "address"
        }
      ],
      "stateMutability": "nonpayable",
      "type": "constructor"
    },
    {
      "inputs": [],
      "name": "Application_fees",
      "outputs": [
        {
          "internalType": "uint256",
          "name": "",
          "type": "uint256"
        }
      ],
      "stateMutability": "view",
      "type": "function",
      "constant": true
    },
    {
      "inputs": [
        {
          "internalType": "uint256",
          "name": "",
          "type": "uint256"
        }
      ],
      "name": "Clinical_Trail_Products",
      "outputs": [
        {
          "internalType": "address",
          "name": "producer",
          "type": "address"
        },
        {
          "internalType": "uint256",
          "name": "ctitem_no",
          "type": "uint256"
        },
        {
          "internalType": "string",
          "name": "ctitem_hash",
          "type": "string"
        },
        {
          "internalType": "bool",
          "name": "Application_stage_completed",
          "type": "bool"
        },
        {
          "internalType": "bool",
          "name": "Appilcation_Approved",
          "type": "bool"
        },
        {
          "internalType": "bool",
          "name": "enrollment_completed",
          "type": "bool"
        }
      ],
      "stateMutability": "view",
      "type": "function",
      "constant": true
    },
    {
      "inputs": [
        {
          "internalType": "uint256",
          "name": "",
          "type": "uint256"
        }
      ],
      "name": "Clinical_Trails",
      "outputs": [
        {
          "internalType": "uint256",
          "name": "ctitem_number",
          "type": "uint256"
        },
        {
          "internalType": "uint256",
          "name": "starttime",
          "type": "uint256"
        },
        {
          "internalType": "uint256",
          "name": "endtime",
          "type": "uint256"
        },
        {
          "internalType": "uint256",
          "name": "noofpaits",
          "type": "uint256"
        },
        {
          "internalType": "uint256",
          "name": "max_age",
          "type": "uint256"
        },
        {
          "internalType": "uint256",
          "name": "no_of_paits",
          "type": "uint256"
        },
        {
          "internalType": "string",
          "name": "ct_hash",
          "type": "string"
        },
        {
          "internalType": "string",
          "name": "sop_hash",
          "type": "string"
        },
        {
          "internalType": "string",
          "name": "pi_cv_hash",
          "type": "string"
        },
        {
          "internalType": "bool",
          "name": "CT_approved",
          "type": "bool"
        },
        {
          "internalType": "uint256",
          "name": "no_of_pait",
          "type": "uint256"
        }
      ],
      "stateMutability": "view",
      "type": "function",
      "constant": true
    },
    {
      "inputs": [],
      "name": "FDA_authority",
      "outputs": [
        {
          "internalType": "address",
          "name": "",
          "type": "address"
        }
      ],
      "stateMutability": "view",
      "type": "function",
      "constant": true
    },
    {
      "inputs": [
        {
          "internalType": "uint256",
          "name": "",
          "type": "uint256"
        }
      ],
      "name": "ct_to_physican",
      "outputs": [
        {
          "internalType": "address",
          "name": "",
          "type": "address"
        }
      ],
      "stateMutability": "view",
      "type": "function",
      "constant": true
    },
    {
      "inputs": [],
      "name": "physician",
      "outputs": [
        {
          "internalType": "address",
          "name": "",
          "type": "address"
        }
      ],
      "stateMutability": "view",
      "type": "function",
      "constant": true
    },
    {
      "inputs": [
        {
          "internalType": "string",
          "name": "hash",
          "type": "string"
        },
        {
          "internalType": "bool",
          "name": "application_stage",
          "type": "bool"
        }
      ],
      "name": "submit_Application",
      "outputs": [],
      "stateMutability": "payable",
      "type": "function",
      "payable": true
    },
    {
      "inputs": [
        {
          "internalType": "uint256",
          "name": "application_id",
          "type": "uint256"
        },
        {
          "internalType": "bool",
          "name": "details_correct",
          "type": "bool"
        }
      ],
      "name": "approve_application",
      "outputs": [],
      "stateMutability": "nonpayable",
      "type": "function"
    },
    {
      "inputs": [
        {
          "internalType": "address",
          "name": "j",
          "type": "address"
        }
      ],
      "name": "valid_sponsor",
      "outputs": [
        {
          "internalType": "bool",
          "name": "",
          "type": "bool"
        }
      ],
      "stateMutability": "view",
      "type": "function",
      "constant": true
    },
    {
      "inputs": [
        {
          "internalType": "uint256",
          "name": "CT_number",
          "type": "uint256"
        },
        {
          "internalType": "uint256",
          "name": "start_time",
          "type": "uint256"
        },
        {
          "internalType": "uint256",
          "name": "end_time",
          "type": "uint256"
        },
        {
          "internalType": "uint256",
          "name": "noofpaitents",
          "type": "uint256"
        },
        {
          "internalType": "uint256",
          "name": "max_age",
          "type": "uint256"
        },
        {
          "internalType": "string",
          "name": "CTProtocolHash",
          "type": "string"
        },
        {
          "internalType": "string",
          "name": "SOPHash",
          "type": "string"
        },
        {
          "internalType": "string",
          "name": "PI_CVHash",
          "type": "string"
        }
      ],
      "name": "clinical_trail_Request",
      "outputs": [],
      "stateMutability": "nonpayable",
      "type": "function"
    },
    {
      "inputs": [
        {
          "internalType": "uint256",
          "name": "CT_number",
          "type": "uint256"
        }
      ],
      "name": "approve_CT_request",
      "outputs": [],
      "stateMutability": "nonpayable",
      "type": "function"
    },
    {
      "inputs": [
        {
          "internalType": "uint256",
          "name": "cid",
          "type": "uint256"
        },
        {
          "internalType": "address",
          "name": "phy",
          "type": "address"
        }
      ],
      "name": "assign_physician",
      "outputs": [],
      "stateMutability": "nonpayable",
      "type": "function"
    },
    {
      "inputs": [
        {
          "internalType": "address",
          "name": "padd",
          "type": "address"
        },
        {
          "internalType": "uint256",
          "name": "pait_id",
          "type": "uint256"
        },
        {
          "internalType": "uint256",
          "name": "ct_number",
          "type": "uint256"
        },
        {
          "internalType": "uint256",
          "name": "age",
          "type": "uint256"
        },
        {
          "internalType": "bool",
          "name": "consent_completed",
          "type": "bool"
        },
        {
          "internalType": "bool",
          "name": "medical_remark",
          "type": "bool"
        },
        {
          "internalType": "string",
          "name": "medical_report_hash",
          "type": "string"
        }
      ],
      "name": "enroll_paitient",
      "outputs": [],
      "stateMutability": "nonpayable",
      "type": "function"
    },
    {
      "inputs": [
        {
          "internalType": "uint256",
          "name": "ct_number",
          "type": "uint256"
        }
      ],
      "name": "enroll_completed",
      "outputs": [],
      "stateMutability": "nonpayable",
      "type": "function"
    },
    {
      "inputs": [
        {
          "internalType": "uint256",
          "name": "pait_id",
          "type": "uint256"
        },
        {
          "internalType": "bool",
          "name": "res",
          "type": "bool"
        }
      ],
      "name": "enter_result",
      "outputs": [],
      "stateMutability": "nonpayable",
      "type": "function"
    },
    {
      "inputs": [
        {
          "internalType": "uint256",
          "name": "ct_number",
          "type": "uint256"
        }
      ],
      "name": "declare_trail_result",
      "outputs": [
        {
          "internalType": "bool",
          "name": "",
          "type": "bool"
        }
      ],
      "stateMutability": "view",
      "type": "function",
      "constant": true
    }
  ],
  "bytecode": "0x6080604052600060075560c86009553480156200001b57600080fd5b50604051620022ec380380620022ec8339818101604052810190620000419190620000f3565b80600660006101000a81548173ffffffffffffffffffffffffffffffffffffffff021916908373ffffffffffffffffffffffffffffffffffffffff1602179055505062000125565b600080fd5b600073ffffffffffffffffffffffffffffffffffffffff82169050919050565b6000620000bb826200008e565b9050919050565b620000cd81620000ae565b8114620000d957600080fd5b50565b600081519050620000ed81620000c2565b92915050565b6000602082840312156200010c576200010b62000089565b5b60006200011c84828501620000dc565b91505092915050565b6121b780620001356000396000f3fe6080604052600436106100f35760003560e01c80637074ec7e1161008a578063b896ceed11610059578063b896ceed1461034e578063bcc6a1e014610377578063d6e23527146103a0578063f6a033a5146103cb576100f3565b80637074ec7e146102945780637bbb8cf8146102d1578063841190b2146102fa578063af27d0d814610325576100f3565b806344f7b8c3116100c657806344f7b8c3146101cb57806346c0137b14610208578063562a584414610231578063705270d114610278576100f3565b80632153568a146100f8578063333f8d021461013557806339d4981214610177578063428189f9146101a2575b600080fd5b34801561010457600080fd5b5061011f600480360381019061011a919061141f565b6103f4565b60405161012c9190611467565b60405180910390f35b34801561014157600080fd5b5061015c6004803603810190610157919061141f565b6104b5565b60405161016e9695949392919061156b565b60405180910390f35b34801561018357600080fd5b5061018c6105c0565b60405161019991906115d3565b60405180910390f35b3480156101ae57600080fd5b506101c960048036038101906101c4919061161a565b6105e6565b005b3480156101d757600080fd5b506101f260048036038101906101ed919061165a565b6106cb565b6040516101ff9190611467565b60405180910390f35b34801561021457600080fd5b5061022f600480360381019061022a91906116b3565b61078f565b005b34801561023d57600080fd5b506102586004803603810190610253919061141f565b610805565b60405161026f9b9a999897969594939291906116f3565b60405180910390f35b610292600480360381019061028d91906118e8565b610a04565b005b3480156102a057600080fd5b506102bb60048036038101906102b6919061141f565b610c36565b6040516102c891906115d3565b60405180910390f35b3480156102dd57600080fd5b506102f860048036038101906102f391906116b3565b610c69565b005b34801561030657600080fd5b5061030f610d67565b60405161031c91906115d3565b60405180910390f35b34801561033157600080fd5b5061034c6004803603810190610347919061141f565b610d8d565b005b34801561035a57600080fd5b5061037560048036038101906103709190611944565b610e19565b005b34801561038357600080fd5b5061039e60048036038101906103999190611a02565b61105c565b005b3480156103ac57600080fd5b506103b561126a565b6040516103c29190611b0c565b60405180910390f35b3480156103d757600080fd5b506103f260048036038101906103ed919061141f565b611270565b005b60008060005b600a805490508110156104695760011515600a828154811061041f5761041e611b27565b5b90600052602060002090602091828204019190069054906101000a900460ff16151503610456576001826104539190611b85565b91505b808061046190611bdb565b9150506103fa565b50600a6004600085815260200190815260200160002060030154600761048f9190611c23565b6104999190611cac565b8111156104aa5760019150506104b0565b60009150505b919050565b60086020528060005260406000206000915090508060000160009054906101000a900473ffffffffffffffffffffffffffffffffffffffff169080600101549080600201805461050490611d0c565b80601f016020809104026020016040519081016040528092919081815260200182805461053090611d0c565b801561057d5780601f106105525761010080835404028352916020019161057d565b820191906000526020600020905b81548152906001019060200180831161056057829003601f168201915b5050505050908060030160009054906101000a900460ff16908060030160019054906101000a900460ff16908060030160029054906101000a900460ff16905086565b600360009054906101000a900473ffffffffffffffffffffffffffffffffffffffff1681565b600115156105f3336106cb565b151514610635576040517f08c379a000000000000000000000000000000000000000000000000000000000815260040161062c90611d89565b60405180910390fd5b8060008084815260200190815260200160002060006101000a81548173ffffffffffffffffffffffffffffffffffffffff021916908373ffffffffffffffffffffffffffffffffffffffff16021790555080600360006101000a81548173ffffffffffffffffffffffffffffffffffffffff021916908373ffffffffffffffffffffffffffffffffffffffff1602179055505050565b6000806000905060005b600580549050811015610775578373ffffffffffffffffffffffffffffffffffffffff166005828154811061070d5761070c611b27565b5b9060005260206000200160009054906101000a900473ffffffffffffffffffffffffffffffffffffffff1673ffffffffffffffffffffffffffffffffffffffff1603610762576001915060019250505061078a565b808061076d90611bdb565b9150506106d5565b506000810361078857600091505061078a565b505b919050565b806002600084815260200190815260200160002060030160006101000a81548160ff021916908315150217905550600a8190806001815401808255809150506001900390600052602060002090602091828204019190069091909190916101000a81548160ff0219169083151502179055505050565b600460205280600052604060002060009150905080600001549080600101549080600201549080600301549080600401549080600501549080600601805461084c90611d0c565b80601f016020809104026020016040519081016040528092919081815260200182805461087890611d0c565b80156108c55780601f1061089a576101008083540402835291602001916108c5565b820191906000526020600020905b8154815290600101906020018083116108a857829003601f168201915b5050505050908060070180546108da90611d0c565b80601f016020809104026020016040519081016040528092919081815260200182805461090690611d0c565b80156109535780601f1061092857610100808354040283529160200191610953565b820191906000526020600020905b81548152906001019060200180831161093657829003601f168201915b50505050509080600801805461096890611d0c565b80601f016020809104026020016040519081016040528092919081815260200182805461099490611d0c565b80156109e15780601f106109b6576101008083540402835291602001916109e1565b820191906000526020600020905b8154815290600101906020018083116109c457829003601f168201915b5050505050908060090160009054906101000a900460ff169080600a015490508b565b6009543414610a48576040517f08c379a0000000000000000000000000000000000000000000000000000000008152600401610a3f90611e1b565b60405180910390fd5b6005339080600181540180825580915050600190039060005260206000200160009091909190916101000a81548173ffffffffffffffffffffffffffffffffffffffff021916908373ffffffffffffffffffffffffffffffffffffffff160217905550600660009054906101000a900473ffffffffffffffffffffffffffffffffffffffff1673ffffffffffffffffffffffffffffffffffffffff166108fc349081150290604051600060405180830381858888f19350505050158015610b13573d6000803e3d6000fd5b50600160076000828254610b279190611b85565b925050819055503360086000600754815260200190815260200160002060000160006101000a81548173ffffffffffffffffffffffffffffffffffffffff021916908373ffffffffffffffffffffffffffffffffffffffff16021790555060075460086000600754815260200190815260200160002060010181905550816008600060075481526020019081526020016000206002019080519060200190610bd0929190611332565b508060086000600754815260200190815260200160002060030160006101000a81548160ff021916908315150217905550600060086000600754815260200190815260200160002060030160016101000a81548160ff0219169083151502179055505050565b60006020528060005260406000206000915054906101000a900473ffffffffffffffffffffffffffffffffffffffff1681565b600660009054906101000a900473ffffffffffffffffffffffffffffffffffffffff1673ffffffffffffffffffffffffffffffffffffffff163373ffffffffffffffffffffffffffffffffffffffff1614610cf9576040517f08c379a0000000000000000000000000000000000000000000000000000000008152600401610cf090611e87565b60405180910390fd5b8015610d335760016008600084815260200190815260200160002060030160016101000a81548160ff021916908315150217905550610d63565b60006008600084815260200190815260200160002060030160016101000a81548160ff0219169083151502179055505b5050565b600660009054906101000a900473ffffffffffffffffffffffffffffffffffffffff1681565b600360009054906101000a900473ffffffffffffffffffffffffffffffffffffffff1673ffffffffffffffffffffffffffffffffffffffff163373ffffffffffffffffffffffffffffffffffffffff1614610de757600080fd5b60016008600083815260200190815260200160002060030160026101000a81548160ff02191690831515021790555050565b600360009054906101000a900473ffffffffffffffffffffffffffffffffffffffff1673ffffffffffffffffffffffffffffffffffffffff163373ffffffffffffffffffffffffffffffffffffffff1614610ea9576040517f08c379a0000000000000000000000000000000000000000000000000000000008152600401610ea090611f19565b60405180910390fd5b82610ee9576040517f08c379a0000000000000000000000000000000000000000000000000000000008152600401610ee090611fab565b60405180910390fd5b60046000868152602001908152602001600020600401548410610f0b57600080fd5b6000151582151514610f52576040517f08c379a0000000000000000000000000000000000000000000000000000000008152600401610f499061203d565b60405180910390fd5b600460008681526020019081526020016000206003015460046000878152602001908152602001600020600a015410610f8a57600080fd5b866002600088815260200190815260200160002060000160006101000a81548173ffffffffffffffffffffffffffffffffffffffff021916908373ffffffffffffffffffffffffffffffffffffffff160217905550846002600088815260200190815260200160002060010181905550600160046000878152602001908152602001600020600a0160008282546110219190611b85565b9250508190555080600260008881526020019081526020016000206002019080519060200190611052929190611332565b5050505050505050565b611065336106cb565b6110a4576040517f08c379a000000000000000000000000000000000000000000000000000000000815260040161109b906120f5565b60405180910390fd5b60011515600860008a815260200190815260200160002060030160019054906101000a900460ff1615151461110e576040517f08c379a000000000000000000000000000000000000000000000000000000000815260040161110590612161565b60405180910390fd5b87600460008a81526020019081526020016000206000018190555086600460008a81526020019081526020016000206001018190555085600460008a81526020019081526020016000206002018190555084600460008a81526020019081526020016000206003018190555083600460008a81526020019081526020016000206004018190555084600460008a81526020019081526020016000206005018190555082600460008a815260200190815260200160002060060190805190602001906111da929190611332565b5081600460008a81526020019081526020016000206007019080519060200190611205929190611332565b5080600460008a81526020019081526020016000206008019080519060200190611230929190611332565b506000600460008a815260200190815260200160002060090160006101000a81548160ff0219169083151502179055505050505050505050565b60095481565b600660009054906101000a900473ffffffffffffffffffffffffffffffffffffffff1673ffffffffffffffffffffffffffffffffffffffff163373ffffffffffffffffffffffffffffffffffffffff1614611300576040517f08c379a00000000000000000000000000000000000000000000000000000000081526004016112f790611e87565b60405180910390fd5b60016004600083815260200190815260200160002060090160006101000a81548160ff02191690831515021790555050565b82805461133e90611d0c565b90600052602060002090601f01602090048101928261136057600085556113a7565b82601f1061137957805160ff19168380011785556113a7565b828001600101855582156113a7579182015b828111156113a657825182559160200191906001019061138b565b5b5090506113b491906113b8565b5090565b5b808211156113d15760008160009055506001016113b9565b5090565b6000604051905090565b600080fd5b600080fd5b6000819050919050565b6113fc816113e9565b811461140757600080fd5b50565b600081359050611419816113f3565b92915050565b600060208284031215611435576114346113df565b5b60006114438482850161140a565b91505092915050565b60008115159050919050565b6114618161144c565b82525050565b600060208201905061147c6000830184611458565b92915050565b600073ffffffffffffffffffffffffffffffffffffffff82169050919050565b60006114ad82611482565b9050919050565b6114bd816114a2565b82525050565b6114cc816113e9565b82525050565b600081519050919050565b600082825260208201905092915050565b60005b8381101561150c5780820151818401526020810190506114f1565b8381111561151b576000848401525b50505050565b6000601f19601f8301169050919050565b600061153d826114d2565b61154781856114dd565b93506115578185602086016114ee565b61156081611521565b840191505092915050565b600060c08201905061158060008301896114b4565b61158d60208301886114c3565b818103604083015261159f8187611532565b90506115ae6060830186611458565b6115bb6080830185611458565b6115c860a0830184611458565b979650505050505050565b60006020820190506115e860008301846114b4565b92915050565b6115f7816114a2565b811461160257600080fd5b50565b600081359050611614816115ee565b92915050565b60008060408385031215611631576116306113df565b5b600061163f8582860161140a565b925050602061165085828601611605565b9150509250929050565b6000602082840312156116705761166f6113df565b5b600061167e84828501611605565b91505092915050565b6116908161144c565b811461169b57600080fd5b50565b6000813590506116ad81611687565b92915050565b600080604083850312156116ca576116c96113df565b5b60006116d88582860161140a565b92505060206116e98582860161169e565b9150509250929050565b600061016082019050611709600083018e6114c3565b611716602083018d6114c3565b611723604083018c6114c3565b611730606083018b6114c3565b61173d608083018a6114c3565b61174a60a08301896114c3565b81810360c083015261175c8188611532565b905081810360e08301526117708187611532565b90508181036101008301526117858186611532565b9050611795610120830185611458565b6117a36101408301846114c3565b9c9b505050505050505050505050565b600080fd5b600080fd5b7f4e487b7100000000000000000000000000000000000000000000000000000000600052604160045260246000fd5b6117f582611521565b810181811067ffffffffffffffff82111715611814576118136117bd565b5b80604052505050565b60006118276113d5565b905061183382826117ec565b919050565b600067ffffffffffffffff821115611853576118526117bd565b5b61185c82611521565b9050602081019050919050565b82818337600083830152505050565b600061188b61188684611838565b61181d565b9050828152602081018484840111156118a7576118a66117b8565b5b6118b2848285611869565b509392505050565b600082601f8301126118cf576118ce6117b3565b5b81356118df848260208601611878565b91505092915050565b600080604083850312156118ff576118fe6113df565b5b600083013567ffffffffffffffff81111561191d5761191c6113e4565b5b611929858286016118ba565b925050602061193a8582860161169e565b9150509250929050565b600080600080600080600060e0888a031215611963576119626113df565b5b60006119718a828b01611605565b97505060206119828a828b0161140a565b96505060406119938a828b0161140a565b95505060606119a48a828b0161140a565b94505060806119b58a828b0161169e565b93505060a06119c68a828b0161169e565b92505060c088013567ffffffffffffffff8111156119e7576119e66113e4565b5b6119f38a828b016118ba565b91505092959891949750929550565b600080600080600080600080610100898b031215611a2357611a226113df565b5b6000611a318b828c0161140a565b9850506020611a428b828c0161140a565b9750506040611a538b828c0161140a565b9650506060611a648b828c0161140a565b9550506080611a758b828c0161140a565b94505060a089013567ffffffffffffffff811115611a9657611a956113e4565b5b611aa28b828c016118ba565b93505060c089013567ffffffffffffffff811115611ac357611ac26113e4565b5b611acf8b828c016118ba565b92505060e089013567ffffffffffffffff811115611af057611aef6113e4565b5b611afc8b828c016118ba565b9150509295985092959890939650565b6000602082019050611b2160008301846114c3565b92915050565b7f4e487b7100000000000000000000000000000000000000000000000000000000600052603260045260246000fd5b7f4e487b7100000000000000000000000000000000000000000000000000000000600052601160045260246000fd5b6000611b90826113e9565b9150611b9b836113e9565b9250827fffffffffffffffffffffffffffffffffffffffffffffffffffffffffffffffff03821115611bd057611bcf611b56565b5b828201905092915050565b6000611be6826113e9565b91507fffffffffffffffffffffffffffffffffffffffffffffffffffffffffffffffff8203611c1857611c17611b56565b5b600182019050919050565b6000611c2e826113e9565b9150611c39836113e9565b9250817fffffffffffffffffffffffffffffffffffffffffffffffffffffffffffffffff0483118215151615611c7257611c71611b56565b5b828202905092915050565b7f4e487b7100000000000000000000000000000000000000000000000000000000600052601260045260246000fd5b6000611cb7826113e9565b9150611cc2836113e9565b925082611cd257611cd1611c7d565b5b828204905092915050565b7f4e487b7100000000000000000000000000000000000000000000000000000000600052602260045260246000fd5b60006002820490506001821680611d2457607f821691505b602082108103611d3757611d36611cdd565b5b50919050565b7f4e6f7420616c6c6f77656420746f2061737369676e2070687973696369616e00600082015250565b6000611d73601f836114dd565b9150611d7e82611d3d565b602082019050919050565b60006020820190508181036000830152611da281611d66565b9050919050565b7f54686520616d6f756e74206973206e6f7420656666696369656e7420746f207360008201527f75626d697420746865206170706c69636174696f6e0000000000000000000000602082015250565b6000611e056035836114dd565b9150611e1082611da9565b604082019050919050565b60006020820190508181036000830152611e3481611df8565b9050919050565b7f4f6e6c792046444120617574686f726974792000000000000000000000000000600082015250565b6000611e716013836114dd565b9150611e7c82611e3b565b602082019050919050565b60006020820190508181036000830152611ea081611e64565b9050919050565b7f6f6e6c792070687973696369616e2063616e20656e726f6c6c2070617469656e60008201527f7400000000000000000000000000000000000000000000000000000000000000602082015250565b6000611f036021836114dd565b9150611f0e82611ea7565b604082019050919050565b60006020820190508181036000830152611f3281611ef6565b9050919050565b7f50617469656e74206e6565647320746f20636f6d706c65746520636f6e73656e60008201527f7420746f20656e726f6c6c000000000000000000000000000000000000000000602082015250565b6000611f95602b836114dd565b9150611fa082611f39565b604082019050919050565b60006020820190508181036000830152611fc481611f88565b9050919050565b7f7468652070617469656e74206d757374206e6f74206861766520616e79206d6560008201527f646963616c2072656d61726b0000000000000000000000000000000000000000602082015250565b6000612027602c836114dd565b915061203282611fcb565b604082019050919050565b600060208201905081810360008301526120568161201a565b9050919050565b7f596f7520617265206e6f7420612076616c69642073706f6e736f7220796f752060008201527f617265206e6f7420616c6c6f77656420726f206d616b6520436c696e6963616c60208201527f20547261696c2052657175657374000000000000000000000000000000000000604082015250565b60006120df604e836114dd565b91506120ea8261205d565b606082019050919050565b6000602082019050818103600083015261210e816120d2565b9050919050565b7f4170706c69636174696f6e204e6f7420417070726f7665642079657400000000600082015250565b600061214b601c836114dd565b915061215682612115565b602082019050919050565b6000602082019050818103600083015261217a8161213e565b905091905056fea264697066735822122093fbd0a04a1b55b84b4cc7e76ee746a764c1588b13a7a54e2a43aba7200e0cf364736f6c634300080e0033",
  "immutableReferences": {},
  "source": "pragma solidity 0.8.14;\r\ncontract ClinicalTrails{\r\n    constructor(address fda){\r\n        FDA_authority=fda;\r\n    }\r\n    struct CTitem{\r\n        address producer;\r\n        uint ctitem_no;\r\n        string ctitem_hash;\r\n        bool Application_stage_completed;\r\n        bool Appilcation_Approved; \r\n        bool enrollment_completed;  \r\n    }\r\n    struct ClinicalTrailRequest{\r\n        uint ctitem_number;\r\n        uint starttime;\r\n        uint endtime;\r\n        uint noofpaits;\r\n        uint max_age;\r\n        uint no_of_paits;\r\n        string ct_hash;\r\n        string sop_hash;\r\n        string pi_cv_hash;\r\n        bool CT_approved;\r\n        uint no_of_pait;\r\n    }\r\nmapping(uint=>address) public ct_to_physican;\r\n    struct patient{\r\n        address patient_Address;\r\n        uint ct_number;\r\n        string  medical_report_hash;\r\n        bool result;\r\n    }\r\n    address [] patientaddress;\r\n    mapping (uint => patient)patients;\r\n    address public physician;\r\n    mapping (uint => ClinicalTrailRequest) public Clinical_Trails;\r\n    address [] sponsors;\r\n    address public FDA_authority;\r\n    uint clinical_item_number=0;\r\n    mapping (uint => CTitem) public Clinical_Trail_Products;\r\n\r\n    uint public Application_fees=200;\r\n    bool [] pait_result;\r\n    function submit_Application(string memory hash,bool application_stage) public payable \r\n    {\r\n        require(msg.value==Application_fees,\"The amount is not efficient to submit the application\");\r\n        sponsors.push(msg.sender);\r\n        payable(FDA_authority).transfer(msg.value);\r\n        clinical_item_number+=1;\r\n        Clinical_Trail_Products[clinical_item_number].producer=msg.sender;\r\n        Clinical_Trail_Products[clinical_item_number].ctitem_no=clinical_item_number;\r\n        Clinical_Trail_Products[clinical_item_number].ctitem_hash=hash;\r\n        Clinical_Trail_Products[clinical_item_number].Application_stage_completed=application_stage;\r\n        Clinical_Trail_Products[clinical_item_number].Appilcation_Approved=false;\r\n    }\r\n    function approve_application(uint application_id,bool details_correct) public {\r\n        require(msg.sender==FDA_authority,\"Only FDA authority \");\r\n        if(details_correct){\r\n            Clinical_Trail_Products[application_id].Appilcation_Approved=true;\r\n        }\r\n        else{\r\n            Clinical_Trail_Products[application_id].Appilcation_Approved=false;\r\n        }\r\n\r\n    }\r\n    function valid_sponsor(address j) public view returns(bool)\r\n    {\r\n        uint flag=0;\r\n        for(uint i=0;i<sponsors.length;i++)\r\n        {\r\n            if(sponsors[i]==j)\r\n            {\r\n                flag=1;\r\n                return true;\r\n            }\r\n        }\r\n        if (flag==0)\r\n        {\r\n            return false;\r\n        }\r\n    }\r\n    function clinical_trail_Request(uint CT_number,uint start_time,uint end_time,uint noofpaitents,uint max_age,string memory CTProtocolHash, string memory SOPHash, string memory PI_CVHash) public {\r\n        require(valid_sponsor(msg.sender),\"You are not a valid sponsor you are not allowed ro make Clinical Trail Request\");\r\n    require(Clinical_Trail_Products[CT_number].Appilcation_Approved==true,\"Application Not Approved yet\");\r\n    Clinical_Trails[CT_number].ctitem_number=CT_number;\r\n    Clinical_Trails[CT_number].starttime=start_time;\r\n    Clinical_Trails[CT_number].endtime=end_time;\r\n    Clinical_Trails[CT_number].noofpaits=noofpaitents;\r\n    Clinical_Trails[CT_number].max_age=max_age;\r\n    Clinical_Trails[CT_number].no_of_paits=noofpaitents;\r\n     Clinical_Trails[CT_number].ct_hash=CTProtocolHash;\r\n    Clinical_Trails[CT_number].sop_hash=SOPHash;\r\n    Clinical_Trails[CT_number].pi_cv_hash=PI_CVHash;\r\n    Clinical_Trails[CT_number].CT_approved=false;\r\n    }\r\n    function approve_CT_request(uint CT_number) public {\r\n       require(msg.sender==FDA_authority,\"Only FDA authority \");\r\n       Clinical_Trails[CT_number].CT_approved=true;\r\n    }\r\n    function assign_physician(uint cid,address phy) public {\r\n        require(valid_sponsor(msg.sender)==true,\"Not allowed to assign physician\");\r\n        ct_to_physican[cid]=phy;\r\n        physician=phy;\r\n    }\r\n    function enroll_paitient(address padd,uint pait_id,uint ct_number,uint age,bool consent_completed,bool medical_remark,string memory medical_report_hash) public \r\n    {\r\n        require(msg.sender==physician,\"only physician can enroll patient\");\r\n        require(consent_completed,\"Patient needs to complete consent to enroll\");\r\n        require(age<Clinical_Trails[ct_number].max_age);\r\n        require(medical_remark==false,\"the patient must not have any medical remark\");\r\n        require(Clinical_Trails[ct_number].no_of_pait<Clinical_Trails[ct_number].noofpaits);\r\n        patients[pait_id].patient_Address=padd;\r\n        patients[pait_id].ct_number=ct_number;\r\n        Clinical_Trails[ct_number].no_of_pait+=1;\r\n        patients[pait_id].medical_report_hash=medical_report_hash;\r\n    }\r\n    function enroll_completed(uint ct_number) public {\r\n        require(msg.sender==physician);\r\n        Clinical_Trail_Products[ct_number].enrollment_completed=true;\r\n    }\r\n    function enter_result(uint pait_id,bool res) public {\r\n        patients[pait_id].result=res;\r\n        pait_result.push(res);\r\n    }\r\n    function declare_trail_result(uint ct_number) public view returns(bool) {\r\n        uint p;\r\n        for(uint i=0;i<pait_result.length;i++)\r\n        {\r\n            if(pait_result[i]==true)\r\n            {\r\n                p=p+1;\r\n            }\r\n        }\r\n        if (p>((7*Clinical_Trails[ct_number].noofpaits)/10)){\r\n            return true;\r\n        }  \r\n        else {\r\n            return false;\r\n        } }\r\n}",
  "sourcePath": "D:\\programing\\blkchain\\Clinical_Truffle_App\\contracts\\ClinicalTrail.sol",
  "compiler": {
    "name": "solc",
    "version": "0.8.14+commit.80d49f37.Emscripten.clang"
  },
  "schemaVersion": "3.4.16",
  "updatedAt": "2024-11-18T20:17:34.920Z",
  "networkType": "ethereum",
  "devdoc": {
    "kind": "dev",
    "methods": {},
    "version": 1
  },
  "userdoc": {
    "kind": "user",
    "methods": {},
    "version": 1
  }
}