{
  "contractName": "Drugcompany",
  "abi": [
    {
      "inputs": [
        {
          "internalType": "address",
          "name": "hm",
          "type": "address"
        }
      ],
      "stateMutability": "nonpayable",
      "type": "constructor"
    },
    {
      "anonymous": false,
      "inputs": [
        {
          "indexed": false,
          "internalType": "uint256",
          "name": "p",
          "type": "uint256"
        },
        {
          "indexed": false,
          "internalType": "uint256",
          "name": "a",
          "type": "uint256"
        },
        {
          "indexed": false,
          "internalType": "uint256",
          "name": "t",
          "type": "uint256"
        },
        {
          "indexed": false,
          "internalType": "uint256",
          "name": "r",
          "type": "uint256"
        }
      ],
      "name": "added_drug_event",
      "type": "event"
    },
    {
      "anonymous": false,
      "inputs": [
        {
          "indexed": false,
          "internalType": "uint256",
          "name": "h",
          "type": "uint256"
        },
        {
          "indexed": false,
          "internalType": "uint256",
          "name": "porid",
          "type": "uint256"
        },
        {
          "indexed": false,
          "internalType": "uint256",
          "name": "req_amount",
          "type": "uint256"
        },
        {
          "indexed": false,
          "internalType": "uint256",
          "name": "did",
          "type": "uint256"
        },
        {
          "indexed": false,
          "internalType": "uint256",
          "name": "patid",
          "type": "uint256"
        }
      ],
      "name": "drug_bought_event",
      "type": "event"
    },
    {
      "anonymous": false,
      "inputs": [
        {
          "indexed": false,
          "internalType": "uint256",
          "name": "pid",
          "type": "uint256"
        },
        {
          "indexed": false,
          "internalType": "uint256",
          "name": "a",
          "type": "uint256"
        }
      ],
      "name": "produced_drug_event",
      "type": "event"
    },
    {
      "inputs": [],
      "name": "income",
      "outputs": [
        {
          "internalType": "uint256",
          "name": "",
          "type": "uint256"
        }
      ],
      "stateMutability": "view",
      "type": "function",
      "constant": true
    },
    {
      "inputs": [
        {
          "internalType": "address",
          "name": "w",
          "type": "address"
        }
      ],
      "name": "reg_producer",
      "outputs": [],
      "stateMutability": "nonpayable",
      "type": "function"
    },
    {
      "inputs": [
        {
          "internalType": "uint256",
          "name": "pid",
          "type": "uint256"
        },
        {
          "internalType": "uint256",
          "name": "a",
          "type": "uint256"
        }
      ],
      "name": "add_produced_drug",
      "outputs": [],
      "stateMutability": "nonpayable",
      "type": "function"
    },
    {
      "inputs": [
        {
          "internalType": "uint256",
          "name": "y",
          "type": "uint256"
        }
      ],
      "name": "reg_hos",
      "outputs": [],
      "stateMutability": "nonpayable",
      "type": "function"
    },
    {
      "inputs": [
        {
          "internalType": "uint256",
          "name": "y",
          "type": "uint256"
        },
        {
          "internalType": "uint256",
          "name": "hi",
          "type": "uint256"
        }
      ],
      "name": "reg_patient",
      "outputs": [],
      "stateMutability": "nonpayable",
      "type": "function"
    },
    {
      "inputs": [
        {
          "internalType": "uint256",
          "name": "y",
          "type": "uint256"
        }
      ],
      "name": "reg_doctor",
      "outputs": [],
      "stateMutability": "nonpayable",
      "type": "function"
    },
    {
      "inputs": [
        {
          "internalType": "uint256",
          "name": "p",
          "type": "uint256"
        },
        {
          "internalType": "uint256",
          "name": "a",
          "type": "uint256"
        },
        {
          "internalType": "uint256",
          "name": "t",
          "type": "uint256"
        },
        {
          "internalType": "uint256",
          "name": "r",
          "type": "uint256"
        }
      ],
      "name": "add_drug",
      "outputs": [],
      "stateMutability": "nonpayable",
      "type": "function"
    },
    {
      "inputs": [
        {
          "internalType": "uint256",
          "name": "pi",
          "type": "uint256"
        },
        {
          "internalType": "uint256",
          "name": "k",
          "type": "uint256"
        }
      ],
      "name": "update_avail",
      "outputs": [],
      "stateMutability": "nonpayable",
      "type": "function"
    },
    {
      "inputs": [
        {
          "internalType": "uint256",
          "name": "h",
          "type": "uint256"
        },
        {
          "internalType": "uint256",
          "name": "porid",
          "type": "uint256"
        },
        {
          "internalType": "uint256",
          "name": "req_amount",
          "type": "uint256"
        },
        {
          "internalType": "uint256",
          "name": "did",
          "type": "uint256"
        },
        {
          "internalType": "uint256",
          "name": "patid",
          "type": "uint256"
        }
      ],
      "name": "buy_drug",
      "outputs": [],
      "stateMutability": "nonpayable",
      "type": "function"
    },
    {
      "inputs": [
        {
          "internalType": "uint256",
          "name": "pid",
          "type": "uint256"
        }
      ],
      "name": "drug_av",
      "outputs": [
        {
          "internalType": "uint256",
          "name": "",
          "type": "uint256"
        }
      ],
      "stateMutability": "view",
      "type": "function",
      "constant": true
    }
  ],
  "bytecode": "0x6080604052600060045560006007556001600c553480156200002057600080fd5b50604051620017e4380380620017e4833981810160405281019062000046919062000139565b33600260006101000a81548173ffffffffffffffffffffffffffffffffffffffff021916908373ffffffffffffffffffffffffffffffffffffffff16021790555080600360006101000a81548173ffffffffffffffffffffffffffffffffffffffff021916908373ffffffffffffffffffffffffffffffffffffffff160217905550506200016b565b600080fd5b600073ffffffffffffffffffffffffffffffffffffffff82169050919050565b60006200010182620000d4565b9050919050565b6200011381620000f4565b81146200011f57600080fd5b50565b600081519050620001338162000108565b92915050565b600060208284031215620001525762000151620000cf565b5b6000620001628482850162000122565b91505092915050565b611669806200017b6000396000f3fe608060405234801561001057600080fd5b506004361061009e5760003560e01c806388b450461161006657806388b45046146101435780638aad580a14610161578063c7d329e61461017d578063f2c60fac14610199578063fab06eb6146101b55761009e565b80630410e41f146100a3578063095b19d6146100bf5780631c04b82a146100db57806356dcc96d146100f7578063578404ab14610127575b600080fd5b6100bd60048036038101906100b89190610dbb565b6101d1565b005b6100d960048036038101906100d49190610de8565b61028f565b005b6100f560048036038101906100f09190610ead565b61040e565b005b610111600480360381019061010c9190610dbb565b6104e4565b60405161011e9190610ee9565b60405180910390f35b610141600480360381019061013c9190610dbb565b610503565b005b61014b6105c1565b6040516101589190610ee9565b60405180910390f35b61017b60048036038101906101769190610f04565b6105c7565b005b61019760048036038101906101929190610f44565b6106a1565b005b6101b360048036038101906101ae9190610f04565b610a6c565b005b6101cf60048036038101906101ca9190610f04565b610b56565b005b33600360009054906101000a900473ffffffffffffffffffffffffffffffffffffffff1673ffffffffffffffffffffffffffffffffffffffff168173ffffffffffffffffffffffffffffffffffffffff1614610262576040517f08c379a00000000000000000000000000000000000000000000000000000000081526004016102599061101c565b60405180910390fd5b60068290806001815401808255809150506001900390600052602060002001600090919091909150555050565b33600260009054906101000a900473ffffffffffffffffffffffffffffffffffffffff1673ffffffffffffffffffffffffffffffffffffffff168173ffffffffffffffffffffffffffffffffffffffff1614610320576040517f08c379a000000000000000000000000000000000000000000000000000000000815260040161031790611088565b60405180910390fd5b838581600d6000838152602001908152602001600020600001541461037a576040517f08c379a0000000000000000000000000000000000000000000000000000000008152600401610371906110f4565b60405180910390fd5b8560008089815260200190815260200160002060000181905550846000808981526020019081526020016000206001018190555083600080898152602001908152602001600020600201819055507ff209641dbbfea29f36c85a98f3781654f87f6a5427bd0f88b52f6353efe3decb878787876040516103fd9493929190611114565b60405180910390a150505050505050565b33600260009054906101000a900473ffffffffffffffffffffffffffffffffffffffff1673ffffffffffffffffffffffffffffffffffffffff168173ffffffffffffffffffffffffffffffffffffffff161461049f576040517f08c379a000000000000000000000000000000000000000000000000000000000815260040161049690611088565b60405180910390fd5b81600160006101000a81548173ffffffffffffffffffffffffffffffffffffffff021916908373ffffffffffffffffffffffffffffffffffffffff1602179055505050565b6000806000838152602001908152602001600020600001549050919050565b33600360009054906101000a900473ffffffffffffffffffffffffffffffffffffffff1673ffffffffffffffffffffffffffffffffffffffff168173ffffffffffffffffffffffffffffffffffffffff1614610594576040517f08c379a000000000000000000000000000000000000000000000000000000000815260040161058b9061101c565b60405180910390fd5b60098290806001815401808255809150506001900390600052602060002001600090919091909150555050565b60075481565b33600360009054906101000a900473ffffffffffffffffffffffffffffffffffffffff1673ffffffffffffffffffffffffffffffffffffffff168173ffffffffffffffffffffffffffffffffffffffff1614610658576040517f08c379a000000000000000000000000000000000000000000000000000000000815260040161064f9061101c565b60405180910390fd5b600883908060018154018082558091505060019003906000526020600020016000909190919091505581600a600085815260200190815260200160002060000181905550505050565b84600115156106af82610c18565b1515146106f1576040517f08c379a00000000000000000000000000000000000000000000000000000000081526004016106e8906111a5565b60405180910390fd5b83856000808281526020019081526020016000206000015482111561074b576040517f08c379a000000000000000000000000000000000000000000000000000000000815260040161074290611237565b60405180910390fd5b86866000808381526020019081526020016000206001015481106107a4576040517f08c379a000000000000000000000000000000000000000000000000000000000815260040161079b906112c9565b60405180910390fd5b85600115156107b282610c90565b1515146107f4576040517f08c379a00000000000000000000000000000000000000000000000000000000081526004016107eb90611335565b60405180910390fd5b876001151561080282610d08565b151514610844576040517f08c379a000000000000000000000000000000000000000000000000000000000815260040161083b906113a1565b60405180910390fd5b896000808d8152602001908152602001600020600001600082825461086991906113f0565b925050819055506000808c8152602001908152602001600020600201548a6108919190611424565b600760008282546108a2919061147e565b925050819055508b6005600060045481526020019081526020016000206000018190555042600560006004548152602001908152602001600020600101819055508a6005600060045481526020019081526020016000206002018190555089600560006004548152602001908152602001600020600301819055506000808c8152602001908152602001600020600201548a61093e9190611424565b6005600060045481526020019081526020016000206004018190555060016004600082825461096d919061147e565b9250508190555087600b6000600c5481526020019081526020016000206000018190555088600b6000600c5481526020019081526020016000206001018190555042600b6000600c548152602001908152602001600020600201819055508a600b6000600c5481526020019081526020016000206003018190555089600b6000600c548152602001908152602001600020600401819055506001600c6000828254610a18919061147e565b925050819055507ff4bde78c1d32f2ac2fe5eed266850a1d02f14180803baf3f51409bffcfbf31fc8c8c8c8c8c604051610a569594939291906114d4565b60405180910390a1505050505050505050505050565b33600160009054906101000a900473ffffffffffffffffffffffffffffffffffffffff1673ffffffffffffffffffffffffffffffffffffffff168173ffffffffffffffffffffffffffffffffffffffff1614610afd576040517f08c379a0000000000000000000000000000000000000000000000000000000008152600401610af490611573565b60405180910390fd5b81600d6000858152602001908152602001600020600001819055507fad32602579d59f74a6e90d4d217f9fe79c532c141516483e316e255eb91c74938383604051610b49929190611593565b60405180910390a1505050565b33600260009054906101000a900473ffffffffffffffffffffffffffffffffffffffff1673ffffffffffffffffffffffffffffffffffffffff168173ffffffffffffffffffffffffffffffffffffffff1614610be7576040517f08c379a0000000000000000000000000000000000000000000000000000000008152600401610bde90611088565b60405180910390fd5b816000808581526020019081526020016000206000016000828254610c0c919061147e565b92505081905550505050565b6000806000905060005b600680549050811015610c76578360068281548110610c4457610c436115bc565b5b906000526020600020015403610c635760019150600192505050610c8b565b8080610c6e906115eb565b915050610c22565b5060008103610c89576000915050610c8b565b505b919050565b6000806000905060005b600880549050811015610cee578360088281548110610cbc57610cbb6115bc565b5b906000526020600020015403610cdb5760019150600192505050610d03565b8080610ce6906115eb565b915050610c9a565b5060008103610d01576000915050610d03565b505b919050565b6000806000905060005b600980549050811015610d66578360098281548110610d3457610d336115bc565b5b906000526020600020015403610d535760019150600192505050610d7b565b8080610d5e906115eb565b915050610d12565b5060008103610d79576000915050610d7b565b505b919050565b600080fd5b6000819050919050565b610d9881610d85565b8114610da357600080fd5b50565b600081359050610db581610d8f565b92915050565b600060208284031215610dd157610dd0610d80565b5b6000610ddf84828501610da6565b91505092915050565b60008060008060808587031215610e0257610e01610d80565b5b6000610e1087828801610da6565b9450506020610e2187828801610da6565b9350506040610e3287828801610da6565b9250506060610e4387828801610da6565b91505092959194509250565b600073ffffffffffffffffffffffffffffffffffffffff82169050919050565b6000610e7a82610e4f565b9050919050565b610e8a81610e6f565b8114610e9557600080fd5b50565b600081359050610ea781610e81565b92915050565b600060208284031215610ec357610ec2610d80565b5b6000610ed184828501610e98565b91505092915050565b610ee381610d85565b82525050565b6000602082019050610efe6000830184610eda565b92915050565b60008060408385031215610f1b57610f1a610d80565b5b6000610f2985828601610da6565b9250506020610f3a85828601610da6565b9150509250929050565b600080600080600060a08688031215610f6057610f5f610d80565b5b6000610f6e88828901610da6565b9550506020610f7f88828901610da6565b9450506040610f9088828901610da6565b9350506060610fa188828901610da6565b9250506080610fb288828901610da6565b9150509295509295909350565b600082825260208201905092915050565b7f6f6e6c7920686f73706974616c206d616e6167657220697320616c6c6f776564600082015250565b6000611006602083610fbf565b915061101182610fd0565b602082019050919050565b6000602082019050818103600083015261103581610ff9565b9050919050565b7f6f6e6c792064727567206d616e6167657220697320616c6c6f77656400000000600082015250565b6000611072601c83610fbf565b915061107d8261103c565b602082019050919050565b600060208201905081810360008301526110a181611065565b9050919050565b7f6e6f7420636f7272656374206461746120697320656e74657265640000000000600082015250565b60006110de601b83610fbf565b91506110e9826110a8565b602082019050919050565b6000602082019050818103600083015261110d816110d1565b9050919050565b60006080820190506111296000830187610eda565b6111366020830186610eda565b6111436040830185610eda565b6111506060830184610eda565b95945050505050565b7f6974206973206e6f7420612076616c696420686f73706974616c000000000000600082015250565b600061118f601a83610fbf565b915061119a82611159565b602082019050919050565b600060208201905081810360008301526111be81611182565b9050919050565b7f72657175657374656420616d6f756e74206f662064727567206973206e6f742060008201527f617661696c61626c650000000000000000000000000000000000000000000000602082015250565b6000611221602983610fbf565b915061122c826111c5565b604082019050919050565b6000602082019050818103600083015261125081611214565b9050919050565b7f72657175657374656420616d6f756e742069732067726561746572207468616e60008201527f20746865207468726565736f6c64000000000000000000000000000000000000602082015250565b60006112b3602e83610fbf565b91506112be82611257565b604082019050919050565b600060208201905081810360008301526112e2816112a6565b9050919050565b7f6974206973206e6f7420612076616c69642070616974656e7400000000000000600082015250565b600061131f601983610fbf565b915061132a826112e9565b602082019050919050565b6000602082019050818103600083015261134e81611312565b9050919050565b7f6974206973206e6f7420612076616c696420646f63746f720000000000000000600082015250565b600061138b601883610fbf565b915061139682611355565b602082019050919050565b600060208201905081810360008301526113ba8161137e565b9050919050565b7f4e487b7100000000000000000000000000000000000000000000000000000000600052601160045260246000fd5b60006113fb82610d85565b915061140683610d85565b925082821015611419576114186113c1565b5b828203905092915050565b600061142f82610d85565b915061143a83610d85565b9250817fffffffffffffffffffffffffffffffffffffffffffffffffffffffffffffffff0483118215151615611473576114726113c1565b5b828202905092915050565b600061148982610d85565b915061149483610d85565b9250827fffffffffffffffffffffffffffffffffffffffffffffffffffffffffffffffff038211156114c9576114c86113c1565b5b828201905092915050565b600060a0820190506114e96000830188610eda565b6114f66020830187610eda565b6115036040830186610eda565b6115106060830185610eda565b61151d6080830184610eda565b9695505050505050565b7f6f6e6c792070726f647563657220697320616c6c6f7765640000000000000000600082015250565b600061155d601883610fbf565b915061156882611527565b602082019050919050565b6000602082019050818103600083015261158c81611550565b9050919050565b60006040820190506115a86000830185610eda565b6115b56020830184610eda565b9392505050565b7f4e487b7100000000000000000000000000000000000000000000000000000000600052603260045260246000fd5b60006115f682610d85565b91507fffffffffffffffffffffffffffffffffffffffffffffffffffffffffffffffff8203611628576116276113c1565b5b60018201905091905056fea264697066735822122046d6de944224332801c27b80225c6c2b63998291b5feaa90e6eff8003973eb9f64736f6c634300080e0033",
  "immutableReferences": {},
  "source": "pragma solidity 0.8.14;\ncontract Drugcompany\n{\n    struct product\n    {\n        uint avail;\n        uint threosold;\n        uint rate;\n    }\n    mapping (uint => product)drugs;\n    address producer;\n    address drugmanager;\n    address hospitalmanager;\n    // uint public prodid=0;\n    uint orderdid=0;\n    struct order\n    {\n        uint hospid;\n        uint time;\n        uint drugid;\n        uint quantity;\n        uint amount;\n    }\n    mapping (uint => order)orders;\n    uint [] hospitals;\n    uint public income=0;\n       struct patient\n   {\n       uint hospid;\n   }\n   struct patient_log\n   {\n       uint patientid;\n       uint docid;\n       uint timestamp;\n       uint drugid;\n       uint amount;\n   }\n   event produced_drug_event(uint pid,uint a);\n   event added_drug_event(uint p,uint a,uint t,uint r);\n   event drug_bought_event(uint h,uint porid,uint req_amount,uint did,uint patid);\n   uint [] patientarr;\n   uint [] doctors;\n   mapping (uint => patient) patients;\n   mapping (uint => patient_log) logs;\n   uint logid=1;\n    modifier onlydm(address d)\n    {\n        require(d==drugmanager,\"only drug manager is allowed\");\n        _;\n    }\n    modifier onlyhm(address d)\n    {\n        require(d==hospitalmanager,\"only hospital manager is allowed\");\n        _;\n    }\n    function reg_producer(address w) public onlydm(msg.sender)\n    {\n        producer=w;\n    }\n    constructor(address hm)\n    {\n        drugmanager=msg.sender;\n        hospitalmanager=hm;\n    }\n    struct producer_content\n    {\n        uint amount;\n    }\n    mapping (uint => producer_content) produced_drug;\n    modifier onlyproducer(address j)\n    {\n        require(j==producer,\"only producer is allowed\");\n        _;\n    }\n    function add_produced_drug(uint pid,uint a) public onlyproducer(msg.sender)\n    {\n        produced_drug[pid].amount=a;\n        emit produced_drug_event(pid,a);\n    }\n    function reg_hos(uint y) public onlyhm(msg.sender)\n    {\n        hospitals.push(y);\n    }\n    function reg_patient(uint y,uint hi) public onlyhm(msg.sender)\n    {\n        patientarr.push(y);\n        patients[y].hospid=hi;\n    }\n        function reg_doctor(uint y) public onlyhm(msg.sender)\n    {\n        doctors.push(y);\n    }\n    modifier validam(uint d,uint p)\n    {\n        require(produced_drug[p].amount==d,\"not correct data is entered\");\n        _;\n    }\n    function add_drug(uint p,uint a,uint t,uint r) public onlydm(msg.sender) validam(a,p)\n    {\n       drugs[p].avail=a;\n        drugs[p].threosold=t;\n        drugs[p].rate=r;\n        // prodid+=1;\n        emit added_drug_event(p,a,t,r);\n    }\n    function update_avail(uint pi,uint k) public onlydm(msg.sender)\n    {\n        drugs[pi].avail+=k;\n    }\n    function valid_hos(uint j) private view returns(bool)\n    {\n        uint flag=0;\n        for(uint i=0;i<hospitals.length;i++)\n        {\n            if(hospitals[i]==j)\n            {\n                flag=1;\n                return true;\n            }\n        }\n        if (flag==0)\n        {\n            return false;\n        }\n    }\n        function valid_pait(uint j) private view returns(bool)\n    {\n        uint flag=0;\n        for(uint i=0;i<patientarr.length;i++)\n        {\n            if(patientarr[i]==j)\n            {\n                flag=1;\n                return true;\n            }\n        }\n        if (flag==0)\n        {\n            return false;\n        }\n    }\n        function valid_doctors(uint j) private view returns(bool)\n    {\n        uint flag=0;\n        for(uint i=0;i<doctors.length;i++)\n        {\n            if(doctors[i]==j)\n            {\n                flag=1;\n                return true;\n            }\n        }\n        if (flag==0)\n        {\n            return false;\n        }\n    }\n    modifier validhos(uint tr)\n    {\n        require(valid_hos(tr)==true,\"it is not a valid hospital\");\n        _;\n    }\n      modifier validp(uint tr)\n    {\n        require(valid_pait(tr)==true,\"it is not a valid paitent\");\n        _;\n    }\n      modifier validd(uint tr)\n    {\n        require(valid_doctors(tr)==true,\"it is not a valid doctor\");\n        _;\n    }\n    modifier meetavail(uint hy,uint k)\n    {\n        require(hy<= drugs[k].avail,\"requested amount of drug is not available\");\n        _;\n    }\n    modifier meetthros(uint k,uint hy)\n    {\n        require(hy< drugs[k].threosold,\"requested amount is greater than the threesold\");\n        _;\n    }\n      function buy_drug (uint h,uint porid,uint req_amount,uint did,uint patid) public validhos(h) meetavail(req_amount,porid) meetthros(porid,req_amount) validp(patid) validd(did)\n    {\n        drugs[porid].avail-=req_amount;\n        income+=(req_amount*drugs[porid].rate);\n        orders[orderdid].hospid=h;\n        orders[orderdid].time=block.timestamp;\n        orders[orderdid].drugid=porid;\n        orders[orderdid].quantity=req_amount;\n        orders[orderdid].amount=req_amount*drugs[porid].rate;\n        orderdid+=1;\n       logs[logid].patientid=patid;\n        logs[logid].docid=did;\n        logs[logid].timestamp=block.timestamp;\n        logs[logid].drugid=porid;\n        logs[logid].amount=req_amount;\n        logid+=1;\n        emit drug_bought_event(h,porid,req_amount,did,patid);\n    }\n    function drug_av(uint pid) view public returns(uint) \n    {\n        return drugs[pid].avail;\n    }\n}",
  "sourcePath": "/Users/abi-22595/Documents/GitHub/Clinical_Truffle_App/contracts/DrugSupply.sol",
  "compiler": {
    "name": "solc",
    "version": "0.8.14+commit.80d49f37.Emscripten.clang"
  },
  "schemaVersion": "3.4.16",
  "updatedAt": "2024-11-20T04:48:21.051Z",
  "networkType": "ethereum",
  "devdoc": {
    "kind": "dev",
    "methods": {},
    "version": 1
  },
  "userdoc": {
    "kind": "user",
    "methods": {},
    "version": 1
  }
}