{
  "contractName": "Drugcompany",
  "abi": [
    {
      "inputs": [
        {
          "internalType": "address",
          "name": "hm",
          "type": "address"
        }
      ],
      "stateMutability": "nonpayable",
      "type": "constructor"
    },
    {
      "anonymous": false,
      "inputs": [
        {
          "indexed": false,
          "internalType": "uint256",
          "name": "p",
          "type": "uint256"
        },
        {
          "indexed": false,
          "internalType": "uint256",
          "name": "a",
          "type": "uint256"
        },
        {
          "indexed": false,
          "internalType": "uint256",
          "name": "t",
          "type": "uint256"
        },
        {
          "indexed": false,
          "internalType": "uint256",
          "name": "r",
          "type": "uint256"
        }
      ],
      "name": "added_drug_event",
      "type": "event"
    },
    {
      "anonymous": false,
      "inputs": [
        {
          "indexed": false,
          "internalType": "uint256",
          "name": "h",
          "type": "uint256"
        },
        {
          "indexed": false,
          "internalType": "uint256",
          "name": "porid",
          "type": "uint256"
        },
        {
          "indexed": false,
          "internalType": "uint256",
          "name": "req_amount",
          "type": "uint256"
        },
        {
          "indexed": false,
          "internalType": "uint256",
          "name": "did",
          "type": "uint256"
        },
        {
          "indexed": false,
          "internalType": "uint256",
          "name": "patid",
          "type": "uint256"
        }
      ],
      "name": "drug_bought_event",
      "type": "event"
    },
    {
      "anonymous": false,
      "inputs": [
        {
          "indexed": false,
          "internalType": "uint256",
          "name": "pid",
          "type": "uint256"
        },
        {
          "indexed": false,
          "internalType": "uint256",
          "name": "a",
          "type": "uint256"
        }
      ],
      "name": "produced_drug_event",
      "type": "event"
    },
    {
      "inputs": [],
      "name": "income",
      "outputs": [
        {
          "internalType": "uint256",
          "name": "",
          "type": "uint256"
        }
      ],
      "stateMutability": "view",
      "type": "function"
    },
    {
      "inputs": [
        {
          "internalType": "address",
          "name": "w",
          "type": "address"
        }
      ],
      "name": "reg_producer",
      "outputs": [],
      "stateMutability": "nonpayable",
      "type": "function"
    },
    {
      "inputs": [
        {
          "internalType": "uint256",
          "name": "pid",
          "type": "uint256"
        },
        {
          "internalType": "uint256",
          "name": "a",
          "type": "uint256"
        }
      ],
      "name": "add_produced_drug",
      "outputs": [],
      "stateMutability": "nonpayable",
      "type": "function"
    },
    {
      "inputs": [
        {
          "internalType": "uint256",
          "name": "y",
          "type": "uint256"
        }
      ],
      "name": "reg_hos",
      "outputs": [],
      "stateMutability": "nonpayable",
      "type": "function"
    },
    {
      "inputs": [
        {
          "internalType": "uint256",
          "name": "y",
          "type": "uint256"
        },
        {
          "internalType": "uint256",
          "name": "hi",
          "type": "uint256"
        }
      ],
      "name": "reg_patient",
      "outputs": [],
      "stateMutability": "nonpayable",
      "type": "function"
    },
    {
      "inputs": [
        {
          "internalType": "uint256",
          "name": "y",
          "type": "uint256"
        }
      ],
      "name": "reg_doctor",
      "outputs": [],
      "stateMutability": "nonpayable",
      "type": "function"
    },
    {
      "inputs": [
        {
          "internalType": "uint256",
          "name": "p",
          "type": "uint256"
        },
        {
          "internalType": "uint256",
          "name": "a",
          "type": "uint256"
        },
        {
          "internalType": "uint256",
          "name": "t",
          "type": "uint256"
        },
        {
          "internalType": "uint256",
          "name": "r",
          "type": "uint256"
        }
      ],
      "name": "add_drug",
      "outputs": [],
      "stateMutability": "nonpayable",
      "type": "function"
    },
    {
      "inputs": [
        {
          "internalType": "uint256",
          "name": "pi",
          "type": "uint256"
        },
        {
          "internalType": "uint256",
          "name": "k",
          "type": "uint256"
        }
      ],
      "name": "update_avail",
      "outputs": [],
      "stateMutability": "nonpayable",
      "type": "function"
    },
    {
      "inputs": [
        {
          "internalType": "uint256",
          "name": "h",
          "type": "uint256"
        },
        {
          "internalType": "uint256",
          "name": "porid",
          "type": "uint256"
        },
        {
          "internalType": "uint256",
          "name": "req_amount",
          "type": "uint256"
        },
        {
          "internalType": "uint256",
          "name": "did",
          "type": "uint256"
        },
        {
          "internalType": "uint256",
          "name": "patid",
          "type": "uint256"
        }
      ],
      "name": "buy_drug",
      "outputs": [],
      "stateMutability": "nonpayable",
      "type": "function"
    },
    {
      "inputs": [
        {
          "internalType": "uint256",
          "name": "pid",
          "type": "uint256"
        }
      ],
      "name": "drug_av",
      "outputs": [
        {
          "internalType": "uint256",
          "name": "",
          "type": "uint256"
        }
      ],
      "stateMutability": "view",
      "type": "function"
    }
  ],
  "bytecode": "0x6080604052600060045560006007556001600c553480156200002057600080fd5b506040516200184038038062001840833981810160405281019062000046919062000139565b33600260006101000a81548173ffffffffffffffffffffffffffffffffffffffff021916908373ffffffffffffffffffffffffffffffffffffffff16021790555080600360006101000a81548173ffffffffffffffffffffffffffffffffffffffff021916908373ffffffffffffffffffffffffffffffffffffffff160217905550506200016b565b600080fd5b600073ffffffffffffffffffffffffffffffffffffffff82169050919050565b60006200010182620000d4565b9050919050565b6200011381620000f4565b81146200011f57600080fd5b50565b600081519050620001338162000108565b92915050565b600060208284031215620001525762000151620000cf565b5b6000620001628482850162000122565b91505092915050565b6116c5806200017b6000396000f3fe608060405234801561001057600080fd5b506004361061009e5760003560e01c806388b450461161006657806388b45046146101435780638aad580a14610161578063c7d329e61461017d578063f2c60fac14610199578063fab06eb6146101b55761009e565b80630410e41f146100a3578063095b19d6146100bf5780631c04b82a146100db57806356dcc96d146100f7578063578404ab14610127575b600080fd5b6100bd60048036038101906100b89190610e17565b6101d1565b005b6100d960048036038101906100d49190610e44565b61028f565b005b6100f560048036038101906100f09190610f09565b61040e565b005b610111600480360381019061010c9190610e17565b6104e4565b60405161011e9190610f45565b60405180910390f35b610141600480360381019061013c9190610e17565b610503565b005b61014b6105c1565b6040516101589190610f45565b60405180910390f35b61017b60048036038101906101769190610f60565b6105c7565b005b61019760048036038101906101929190610fa0565b6106a1565b005b6101b360048036038101906101ae9190610f60565b610a6c565b005b6101cf60048036038101906101ca9190610f60565b610b56565b005b33600360009054906101000a900473ffffffffffffffffffffffffffffffffffffffff1673ffffffffffffffffffffffffffffffffffffffff168173ffffffffffffffffffffffffffffffffffffffff1614610262576040517f08c379a000000000000000000000000000000000000000000000000000000000815260040161025990611078565b60405180910390fd5b60068290806001815401808255809150506001900390600052602060002001600090919091909150555050565b33600260009054906101000a900473ffffffffffffffffffffffffffffffffffffffff1673ffffffffffffffffffffffffffffffffffffffff168173ffffffffffffffffffffffffffffffffffffffff1614610320576040517f08c379a0000000000000000000000000000000000000000000000000000000008152600401610317906110e4565b60405180910390fd5b838581600d6000838152602001908152602001600020600001541461037a576040517f08c379a000000000000000000000000000000000000000000000000000000000815260040161037190611150565b60405180910390fd5b8560008089815260200190815260200160002060000181905550846000808981526020019081526020016000206001018190555083600080898152602001908152602001600020600201819055507ff209641dbbfea29f36c85a98f3781654f87f6a5427bd0f88b52f6353efe3decb878787876040516103fd9493929190611170565b60405180910390a150505050505050565b33600260009054906101000a900473ffffffffffffffffffffffffffffffffffffffff1673ffffffffffffffffffffffffffffffffffffffff168173ffffffffffffffffffffffffffffffffffffffff161461049f576040517f08c379a0000000000000000000000000000000000000000000000000000000008152600401610496906110e4565b60405180910390fd5b81600160006101000a81548173ffffffffffffffffffffffffffffffffffffffff021916908373ffffffffffffffffffffffffffffffffffffffff1602179055505050565b6000806000838152602001908152602001600020600001549050919050565b33600360009054906101000a900473ffffffffffffffffffffffffffffffffffffffff1673ffffffffffffffffffffffffffffffffffffffff168173ffffffffffffffffffffffffffffffffffffffff1614610594576040517f08c379a000000000000000000000000000000000000000000000000000000000815260040161058b90611078565b60405180910390fd5b60098290806001815401808255809150506001900390600052602060002001600090919091909150555050565b60075481565b33600360009054906101000a900473ffffffffffffffffffffffffffffffffffffffff1673ffffffffffffffffffffffffffffffffffffffff168173ffffffffffffffffffffffffffffffffffffffff1614610658576040517f08c379a000000000000000000000000000000000000000000000000000000000815260040161064f90611078565b60405180910390fd5b600883908060018154018082558091505060019003906000526020600020016000909190919091505581600a600085815260200190815260200160002060000181905550505050565b84600115156106af82610c74565b1515146106f1576040517f08c379a00000000000000000000000000000000000000000000000000000000081526004016106e890611201565b60405180910390fd5b83856000808281526020019081526020016000206000015482111561074b576040517f08c379a000000000000000000000000000000000000000000000000000000000815260040161074290611293565b60405180910390fd5b86866000808381526020019081526020016000206001015481106107a4576040517f08c379a000000000000000000000000000000000000000000000000000000000815260040161079b90611325565b60405180910390fd5b85600115156107b282610cec565b1515146107f4576040517f08c379a00000000000000000000000000000000000000000000000000000000081526004016107eb90611391565b60405180910390fd5b876001151561080282610d64565b151514610844576040517f08c379a000000000000000000000000000000000000000000000000000000000815260040161083b906113fd565b60405180910390fd5b896000808d81526020019081526020016000206000016000828254610869919061144c565b925050819055506000808c8152602001908152602001600020600201548a6108919190611480565b600760008282546108a291906114da565b925050819055508b6005600060045481526020019081526020016000206000018190555042600560006004548152602001908152602001600020600101819055508a6005600060045481526020019081526020016000206002018190555089600560006004548152602001908152602001600020600301819055506000808c8152602001908152602001600020600201548a61093e9190611480565b6005600060045481526020019081526020016000206004018190555060016004600082825461096d91906114da565b9250508190555087600b6000600c5481526020019081526020016000206000018190555088600b6000600c5481526020019081526020016000206001018190555042600b6000600c548152602001908152602001600020600201819055508a600b6000600c5481526020019081526020016000206003018190555089600b6000600c548152602001908152602001600020600401819055506001600c6000828254610a1891906114da565b925050819055507ff4bde78c1d32f2ac2fe5eed266850a1d02f14180803baf3f51409bffcfbf31fc8c8c8c8c8c604051610a56959493929190611530565b60405180910390a1505050505050505050505050565b33600160009054906101000a900473ffffffffffffffffffffffffffffffffffffffff1673ffffffffffffffffffffffffffffffffffffffff168173ffffffffffffffffffffffffffffffffffffffff1614610afd576040517f08c379a0000000000000000000000000000000000000000000000000000000008152600401610af4906115cf565b60405180910390fd5b81600d6000858152602001908152602001600020600001819055507fad32602579d59f74a6e90d4d217f9fe79c532c141516483e316e255eb91c74938383604051610b499291906115ef565b60405180910390a1505050565b33600260009054906101000a900473ffffffffffffffffffffffffffffffffffffffff1673ffffffffffffffffffffffffffffffffffffffff168173ffffffffffffffffffffffffffffffffffffffff1614610be7576040517f08c379a0000000000000000000000000000000000000000000000000000000008152600401610bde906110e4565b60405180910390fd5b818381600d60008381526020019081526020016000206000015414610c41576040517f08c379a0000000000000000000000000000000000000000000000000000000008152600401610c3890611150565b60405180910390fd5b836000808781526020019081526020016000206000016000828254610c6691906114da565b925050819055505050505050565b6000806000905060005b600680549050811015610cd2578360068281548110610ca057610c9f611618565b5b906000526020600020015403610cbf5760019150600192505050610ce7565b8080610cca90611647565b915050610c7e565b5060008103610ce5576000915050610ce7565b505b919050565b6000806000905060005b600880549050811015610d4a578360088281548110610d1857610d17611618565b5b906000526020600020015403610d375760019150600192505050610d5f565b8080610d4290611647565b915050610cf6565b5060008103610d5d576000915050610d5f565b505b919050565b6000806000905060005b600980549050811015610dc2578360098281548110610d9057610d8f611618565b5b906000526020600020015403610daf5760019150600192505050610dd7565b8080610dba90611647565b915050610d6e565b5060008103610dd5576000915050610dd7565b505b919050565b600080fd5b6000819050919050565b610df481610de1565b8114610dff57600080fd5b50565b600081359050610e1181610deb565b92915050565b600060208284031215610e2d57610e2c610ddc565b5b6000610e3b84828501610e02565b91505092915050565b60008060008060808587031215610e5e57610e5d610ddc565b5b6000610e6c87828801610e02565b9450506020610e7d87828801610e02565b9350506040610e8e87828801610e02565b9250506060610e9f87828801610e02565b91505092959194509250565b600073ffffffffffffffffffffffffffffffffffffffff82169050919050565b6000610ed682610eab565b9050919050565b610ee681610ecb565b8114610ef157600080fd5b50565b600081359050610f0381610edd565b92915050565b600060208284031215610f1f57610f1e610ddc565b5b6000610f2d84828501610ef4565b91505092915050565b610f3f81610de1565b82525050565b6000602082019050610f5a6000830184610f36565b92915050565b60008060408385031215610f7757610f76610ddc565b5b6000610f8585828601610e02565b9250506020610f9685828601610e02565b9150509250929050565b600080600080600060a08688031215610fbc57610fbb610ddc565b5b6000610fca88828901610e02565b9550506020610fdb88828901610e02565b9450506040610fec88828901610e02565b9350506060610ffd88828901610e02565b925050608061100e88828901610e02565b9150509295509295909350565b600082825260208201905092915050565b7f6f6e6c7920686f73706974616c206d616e6167657220697320616c6c6f776564600082015250565b600061106260208361101b565b915061106d8261102c565b602082019050919050565b6000602082019050818103600083015261109181611055565b9050919050565b7f6f6e6c792064727567206d616e6167657220697320616c6c6f77656400000000600082015250565b60006110ce601c8361101b565b91506110d982611098565b602082019050919050565b600060208201905081810360008301526110fd816110c1565b9050919050565b7f6e6f7420636f7272656374206461746120697320656e74657265640000000000600082015250565b600061113a601b8361101b565b915061114582611104565b602082019050919050565b600060208201905081810360008301526111698161112d565b9050919050565b60006080820190506111856000830187610f36565b6111926020830186610f36565b61119f6040830185610f36565b6111ac6060830184610f36565b95945050505050565b7f6974206973206e6f7420612076616c696420686f73706974616c000000000000600082015250565b60006111eb601a8361101b565b91506111f6826111b5565b602082019050919050565b6000602082019050818103600083015261121a816111de565b9050919050565b7f72657175657374656420616d6f756e74206f662064727567206973206e6f742060008201527f617661696c61626c650000000000000000000000000000000000000000000000602082015250565b600061127d60298361101b565b915061128882611221565b604082019050919050565b600060208201905081810360008301526112ac81611270565b9050919050565b7f72657175657374656420616d6f756e742069732067726561746572207468616e60008201527f20746865207468726565736f6c64000000000000000000000000000000000000602082015250565b600061130f602e8361101b565b915061131a826112b3565b604082019050919050565b6000602082019050818103600083015261133e81611302565b9050919050565b7f6974206973206e6f7420612076616c69642070616974656e7400000000000000600082015250565b600061137b60198361101b565b915061138682611345565b602082019050919050565b600060208201905081810360008301526113aa8161136e565b9050919050565b7f6974206973206e6f7420612076616c696420646f63746f720000000000000000600082015250565b60006113e760188361101b565b91506113f2826113b1565b602082019050919050565b60006020820190508181036000830152611416816113da565b9050919050565b7f4e487b7100000000000000000000000000000000000000000000000000000000600052601160045260246000fd5b600061145782610de1565b915061146283610de1565b9250828210156114755761147461141d565b5b828203905092915050565b600061148b82610de1565b915061149683610de1565b9250817fffffffffffffffffffffffffffffffffffffffffffffffffffffffffffffffff04831182151516156114cf576114ce61141d565b5b828202905092915050565b60006114e582610de1565b91506114f083610de1565b9250827fffffffffffffffffffffffffffffffffffffffffffffffffffffffffffffffff038211156115255761152461141d565b5b828201905092915050565b600060a0820190506115456000830188610f36565b6115526020830187610f36565b61155f6040830186610f36565b61156c6060830185610f36565b6115796080830184610f36565b9695505050505050565b7f6f6e6c792070726f647563657220697320616c6c6f7765640000000000000000600082015250565b60006115b960188361101b565b91506115c482611583565b602082019050919050565b600060208201905081810360008301526115e8816115ac565b9050919050565b60006040820190506116046000830185610f36565b6116116020830184610f36565b9392505050565b7f4e487b7100000000000000000000000000000000000000000000000000000000600052603260045260246000fd5b600061165282610de1565b91507fffffffffffffffffffffffffffffffffffffffffffffffffffffffffffffffff82036116845761168361141d565b5b60018201905091905056fea26469706673582212202c294d43f3a3a6b8c73161f3969cb7aac84f1113de302789e8bf7fe49b2b3d5064736f6c634300080e0033",
  "immutableReferences": {},
  "source": "pragma solidity 0.8.14;\r\ncontract Drugcompany\r\n{\r\n    struct product\r\n    {\r\n        uint avail;\r\n        uint threosold;\r\n        uint rate;\r\n    }\r\n    mapping (uint => product)drugs;\r\n    address producer;\r\n    address drugmanager;\r\n    address hospitalmanager;\r\n    // uint public prodid=0;\r\n    uint orderdid=0;\r\n    struct order\r\n    {\r\n        uint hospid;\r\n        uint time;\r\n        uint drugid;\r\n        uint quantity;\r\n        uint amount;\r\n    }\r\n    mapping (uint => order)orders;\r\n    uint [] hospitals;\r\n    uint public income=0;\r\n       struct patient\r\n   {\r\n       uint hospid;\r\n   }\r\n   struct patient_log\r\n   {\r\n       uint patientid;\r\n       uint docid;\r\n       uint timestamp;\r\n       uint drugid;\r\n       uint amount;\r\n   }\r\n   event produced_drug_event(uint pid,uint a);\r\n   event added_drug_event(uint p,uint a,uint t,uint r);\r\n   event drug_bought_event(uint h,uint porid,uint req_amount,uint did,uint patid);\r\n   uint [] patientarr;\r\n   uint [] doctors;\r\n   mapping (uint => patient) patients;\r\n   mapping (uint => patient_log) logs;\r\n   uint logid=1;\r\n    modifier onlydm(address d)\r\n    {\r\n        require(d==drugmanager,\"only drug manager is allowed\");\r\n        _;\r\n    }\r\n    modifier onlyhm(address d)\r\n    {\r\n        require(d==hospitalmanager,\"only hospital manager is allowed\");\r\n        _;\r\n    }\r\n    function reg_producer(address w) public onlydm(msg.sender)\r\n    {\r\n        producer=w;\r\n    }\r\n    constructor(address hm)\r\n    {\r\n        drugmanager=msg.sender;\r\n        hospitalmanager=hm;\r\n    }\r\n    struct producer_content\r\n    {\r\n        uint amount;\r\n    }\r\n    mapping (uint => producer_content) produced_drug;\r\n    modifier onlyproducer(address j)\r\n    {\r\n        require(j==producer,\"only producer is allowed\");\r\n        _;\r\n    }\r\n    function add_produced_drug(uint pid,uint a) public onlyproducer(msg.sender)\r\n    {\r\n        produced_drug[pid].amount=a;\r\n        emit produced_drug_event(pid,a);\r\n    }\r\n    function reg_hos(uint y) public onlyhm(msg.sender)\r\n    {\r\n        hospitals.push(y);\r\n    }\r\n    function reg_patient(uint y,uint hi) public onlyhm(msg.sender)\r\n    {\r\n        patientarr.push(y);\r\n        patients[y].hospid=hi;\r\n    }\r\n        function reg_doctor(uint y) public onlyhm(msg.sender)\r\n    {\r\n        doctors.push(y);\r\n    }\r\n    modifier validam(uint d,uint p)\r\n    {\r\n        require(produced_drug[p].amount==d,\"not correct data is entered\");\r\n        _;\r\n    }\r\n    function add_drug(uint p,uint a,uint t,uint r) public onlydm(msg.sender) validam(a,p)\r\n    {\r\n       drugs[p].avail=a;\r\n        drugs[p].threosold=t;\r\n        drugs[p].rate=r;\r\n        // prodid+=1;\r\n        emit added_drug_event(p,a,t,r);\r\n    }\r\n    function update_avail(uint pi,uint k) public onlydm(msg.sender) validam(k,pi)\r\n    {\r\n        drugs[pi].avail+=k;\r\n    }\r\n    function valid_hos(uint j) private view returns(bool)\r\n    {\r\n        uint flag=0;\r\n        for(uint i=0;i<hospitals.length;i++)\r\n        {\r\n            if(hospitals[i]==j)\r\n            {\r\n                flag=1;\r\n                return true;\r\n            }\r\n        }\r\n        if (flag==0)\r\n        {\r\n            return false;\r\n        }\r\n    }\r\n        function valid_pait(uint j) private view returns(bool)\r\n    {\r\n        uint flag=0;\r\n        for(uint i=0;i<patientarr.length;i++)\r\n        {\r\n            if(patientarr[i]==j)\r\n            {\r\n                flag=1;\r\n                return true;\r\n            }\r\n        }\r\n        if (flag==0)\r\n        {\r\n            return false;\r\n        }\r\n    }\r\n        function valid_doctors(uint j) private view returns(bool)\r\n    {\r\n        uint flag=0;\r\n        for(uint i=0;i<doctors.length;i++)\r\n        {\r\n            if(doctors[i]==j)\r\n            {\r\n                flag=1;\r\n                return true;\r\n            }\r\n        }\r\n        if (flag==0)\r\n        {\r\n            return false;\r\n        }\r\n    }\r\n    modifier validhos(uint tr)\r\n    {\r\n        require(valid_hos(tr)==true,\"it is not a valid hospital\");\r\n        _;\r\n    }\r\n      modifier validp(uint tr)\r\n    {\r\n        require(valid_pait(tr)==true,\"it is not a valid paitent\");\r\n        _;\r\n    }\r\n      modifier validd(uint tr)\r\n    {\r\n        require(valid_doctors(tr)==true,\"it is not a valid doctor\");\r\n        _;\r\n    }\r\n    modifier meetavail(uint hy,uint k)\r\n    {\r\n        require(hy<= drugs[k].avail,\"requested amount of drug is not available\");\r\n        _;\r\n    }\r\n    modifier meetthros(uint k,uint hy)\r\n    {\r\n        require(hy< drugs[k].threosold,\"requested amount is greater than the threesold\");\r\n        _;\r\n    }\r\n      function buy_drug (uint h,uint porid,uint req_amount,uint did,uint patid) public validhos(h) meetavail(req_amount,porid) meetthros(porid,req_amount) validp(patid) validd(did)\r\n    {\r\n        drugs[porid].avail-=req_amount;\r\n        income+=(req_amount*drugs[porid].rate);\r\n        orders[orderdid].hospid=h;\r\n        orders[orderdid].time=block.timestamp;\r\n        orders[orderdid].drugid=porid;\r\n        orders[orderdid].quantity=req_amount;\r\n        orders[orderdid].amount=req_amount*drugs[porid].rate;\r\n        orderdid+=1;\r\n       logs[logid].patientid=patid;\r\n        logs[logid].docid=did;\r\n        logs[logid].timestamp=block.timestamp;\r\n        logs[logid].drugid=porid;\r\n        logs[logid].amount=req_amount;\r\n        logid+=1;\r\n        emit drug_bought_event(h,porid,req_amount,did,patid);\r\n    }\r\n    function drug_av(uint pid) view public returns(uint) \r\n    {\r\n        return drugs[pid].avail;\r\n    }\r\n}",
  "sourcePath": "D:\\programing\\blkchain\\Clinical_Truffle_App\\contracts\\DrugSupply.sol",
  "compiler": {
    "name": "solc",
    "version": "0.8.14+commit.80d49f37.Emscripten.clang"
  },
  "schemaVersion": "3.4.16",
  "updatedAt": "2024-11-17T14:22:24.583Z",
  "devdoc": {
    "kind": "dev",
    "methods": {},
    "version": 1
  },
  "userdoc": {
    "kind": "user",
    "methods": {},
    "version": 1
  }
}